{
  "contractName": "MyCRC721Demo",
  "abi": [
    {
      "inputs": [
        {
          "internalType": "string",
          "name": "name_",
          "type": "string"
        },
        {
          "internalType": "string",
          "name": "symbol_",
          "type": "string"
        },
        {
          "internalType": "string",
          "name": "uri_",
          "type": "string"
        }
      ],
      "stateMutability": "nonpayable",
      "type": "constructor"
    },
    {
      "anonymous": false,
      "inputs": [
        {
          "indexed": true,
          "internalType": "address",
          "name": "owner",
          "type": "address"
        },
        {
          "indexed": true,
          "internalType": "address",
          "name": "approved",
          "type": "address"
        },
        {
          "indexed": true,
          "internalType": "uint256",
          "name": "tokenId",
          "type": "uint256"
        }
      ],
      "name": "Approval",
      "type": "event"
    },
    {
      "anonymous": false,
      "inputs": [
        {
          "indexed": true,
          "internalType": "address",
          "name": "owner",
          "type": "address"
        },
        {
          "indexed": true,
          "internalType": "address",
          "name": "operator",
          "type": "address"
        },
        {
          "indexed": false,
          "internalType": "bool",
          "name": "approved",
          "type": "bool"
        }
      ],
      "name": "ApprovalForAll",
      "type": "event"
    },
    {
      "anonymous": false,
      "inputs": [
        {
          "indexed": true,
          "internalType": "bytes32",
          "name": "role",
          "type": "bytes32"
        },
        {
          "indexed": true,
          "internalType": "bytes32",
          "name": "previousAdminRole",
          "type": "bytes32"
        },
        {
          "indexed": true,
          "internalType": "bytes32",
          "name": "newAdminRole",
          "type": "bytes32"
        }
      ],
      "name": "RoleAdminChanged",
      "type": "event"
    },
    {
      "anonymous": false,
      "inputs": [
        {
          "indexed": true,
          "internalType": "bytes32",
          "name": "role",
          "type": "bytes32"
        },
        {
          "indexed": true,
          "internalType": "address",
          "name": "account",
          "type": "address"
        },
        {
          "indexed": true,
          "internalType": "address",
          "name": "sender",
          "type": "address"
        }
      ],
      "name": "RoleGranted",
      "type": "event"
    },
    {
      "anonymous": false,
      "inputs": [
        {
          "indexed": true,
          "internalType": "bytes32",
          "name": "role",
          "type": "bytes32"
        },
        {
          "indexed": true,
          "internalType": "address",
          "name": "account",
          "type": "address"
        },
        {
          "indexed": true,
          "internalType": "address",
          "name": "sender",
          "type": "address"
        }
      ],
      "name": "RoleRevoked",
      "type": "event"
    },
    {
      "anonymous": false,
      "inputs": [
        {
          "indexed": true,
          "internalType": "address",
          "name": "from",
          "type": "address"
        },
        {
          "indexed": true,
          "internalType": "address",
          "name": "to",
          "type": "address"
        },
        {
          "indexed": true,
          "internalType": "uint256",
          "name": "tokenId",
          "type": "uint256"
        }
      ],
      "name": "Transfer",
      "type": "event"
    },
    {
      "inputs": [],
      "name": "DEFAULT_ADMIN_ROLE",
      "outputs": [
        {
          "internalType": "bytes32",
          "name": "",
          "type": "bytes32"
        }
      ],
      "stateMutability": "view",
      "type": "function"
    },
    {
      "inputs": [],
      "name": "MINTER_ROLE",
      "outputs": [
        {
          "internalType": "bytes32",
          "name": "",
          "type": "bytes32"
        }
      ],
      "stateMutability": "view",
      "type": "function"
    },
    {
      "inputs": [],
      "name": "PAUSER_ROLE",
      "outputs": [
        {
          "internalType": "bytes32",
          "name": "",
          "type": "bytes32"
        }
      ],
      "stateMutability": "view",
      "type": "function"
    },
    {
      "inputs": [
        {
          "internalType": "address",
          "name": "to",
          "type": "address"
        },
        {
          "internalType": "uint256",
          "name": "tokenId",
          "type": "uint256"
        }
      ],
      "name": "approve",
      "outputs": [],
      "stateMutability": "nonpayable",
      "type": "function"
    },
    {
      "inputs": [
        {
          "internalType": "address",
          "name": "owner",
          "type": "address"
        }
      ],
      "name": "balanceOf",
      "outputs": [
        {
          "internalType": "uint256",
          "name": "",
          "type": "uint256"
        }
      ],
      "stateMutability": "view",
      "type": "function"
    },
    {
      "inputs": [
        {
          "internalType": "uint256",
          "name": "tokenId",
          "type": "uint256"
        }
      ],
      "name": "getApproved",
      "outputs": [
        {
          "internalType": "address",
          "name": "",
          "type": "address"
        }
      ],
      "stateMutability": "view",
      "type": "function"
    },
    {
      "inputs": [
        {
          "internalType": "bytes32",
          "name": "role",
          "type": "bytes32"
        }
      ],
      "name": "getRoleAdmin",
      "outputs": [
        {
          "internalType": "bytes32",
          "name": "",
          "type": "bytes32"
        }
      ],
      "stateMutability": "view",
      "type": "function"
    },
    {
      "inputs": [
        {
          "internalType": "bytes32",
          "name": "role",
          "type": "bytes32"
        },
        {
          "internalType": "uint256",
          "name": "index",
          "type": "uint256"
        }
      ],
      "name": "getRoleMember",
      "outputs": [
        {
          "internalType": "address",
          "name": "",
          "type": "address"
        }
      ],
      "stateMutability": "view",
      "type": "function"
    },
    {
      "inputs": [
        {
          "internalType": "bytes32",
          "name": "role",
          "type": "bytes32"
        }
      ],
      "name": "getRoleMemberCount",
      "outputs": [
        {
          "internalType": "uint256",
          "name": "",
          "type": "uint256"
        }
      ],
      "stateMutability": "view",
      "type": "function"
    },
    {
      "inputs": [
        {
          "internalType": "bytes32",
          "name": "role",
          "type": "bytes32"
        },
        {
          "internalType": "address",
          "name": "account",
          "type": "address"
        }
      ],
      "name": "grantRole",
      "outputs": [],
      "stateMutability": "nonpayable",
      "type": "function"
    },
    {
      "inputs": [
        {
          "internalType": "bytes32",
          "name": "role",
          "type": "bytes32"
        },
        {
          "internalType": "address",
          "name": "account",
          "type": "address"
        }
      ],
      "name": "hasRole",
      "outputs": [
        {
          "internalType": "bool",
          "name": "",
          "type": "bool"
        }
      ],
      "stateMutability": "view",
      "type": "function"
    },
    {
      "inputs": [
        {
          "internalType": "address",
          "name": "owner",
          "type": "address"
        },
        {
          "internalType": "address",
          "name": "operator",
          "type": "address"
        }
      ],
      "name": "isApprovedForAll",
      "outputs": [
        {
          "internalType": "bool",
          "name": "",
          "type": "bool"
        }
      ],
      "stateMutability": "view",
      "type": "function"
    },
    {
      "inputs": [],
      "name": "name",
      "outputs": [
        {
          "internalType": "string",
          "name": "",
          "type": "string"
        }
      ],
      "stateMutability": "view",
      "type": "function"
    },
    {
      "inputs": [
        {
          "internalType": "uint256",
          "name": "tokenId",
          "type": "uint256"
        }
      ],
      "name": "ownerOf",
      "outputs": [
        {
          "internalType": "address",
          "name": "",
          "type": "address"
        }
      ],
      "stateMutability": "view",
      "type": "function"
    },
    {
      "inputs": [
        {
          "internalType": "bytes32",
          "name": "role",
          "type": "bytes32"
        },
        {
          "internalType": "address",
          "name": "account",
          "type": "address"
        }
      ],
      "name": "renounceRole",
      "outputs": [],
      "stateMutability": "nonpayable",
      "type": "function"
    },
    {
      "inputs": [
        {
          "internalType": "bytes32",
          "name": "role",
          "type": "bytes32"
        },
        {
          "internalType": "address",
          "name": "account",
          "type": "address"
        }
      ],
      "name": "revokeRole",
      "outputs": [],
      "stateMutability": "nonpayable",
      "type": "function"
    },
    {
      "inputs": [
        {
          "internalType": "address",
          "name": "from",
          "type": "address"
        },
        {
          "internalType": "address",
          "name": "to",
          "type": "address"
        },
        {
          "internalType": "uint256",
          "name": "tokenId",
          "type": "uint256"
        }
      ],
      "name": "safeTransferFrom",
      "outputs": [],
      "stateMutability": "nonpayable",
      "type": "function"
    },
    {
      "inputs": [
        {
          "internalType": "address",
          "name": "from",
          "type": "address"
        },
        {
          "internalType": "address",
          "name": "to",
          "type": "address"
        },
        {
          "internalType": "uint256",
          "name": "tokenId",
          "type": "uint256"
        },
        {
          "internalType": "bytes",
          "name": "_data",
          "type": "bytes"
        }
      ],
      "name": "safeTransferFrom",
      "outputs": [],
      "stateMutability": "nonpayable",
      "type": "function"
    },
    {
      "inputs": [
        {
          "internalType": "address",
          "name": "operator",
          "type": "address"
        },
        {
          "internalType": "bool",
          "name": "approved",
          "type": "bool"
        }
      ],
      "name": "setApprovalForAll",
      "outputs": [],
      "stateMutability": "nonpayable",
      "type": "function"
    },
    {
      "inputs": [],
      "name": "symbol",
      "outputs": [
        {
          "internalType": "string",
          "name": "",
          "type": "string"
        }
      ],
      "stateMutability": "view",
      "type": "function"
    },
    {
      "inputs": [
        {
          "internalType": "uint256",
          "name": "index",
          "type": "uint256"
        }
      ],
      "name": "tokenByIndex",
      "outputs": [
        {
          "internalType": "uint256",
          "name": "",
          "type": "uint256"
        }
      ],
      "stateMutability": "view",
      "type": "function"
    },
    {
      "inputs": [
        {
          "internalType": "address",
          "name": "owner",
          "type": "address"
        },
        {
          "internalType": "uint256",
          "name": "index",
          "type": "uint256"
        }
      ],
      "name": "tokenOfOwnerByIndex",
      "outputs": [
        {
          "internalType": "uint256",
          "name": "",
          "type": "uint256"
        }
      ],
      "stateMutability": "view",
      "type": "function"
    },
    {
      "inputs": [
        {
          "internalType": "uint256",
          "name": "offset",
          "type": "uint256"
        },
        {
          "internalType": "uint256",
          "name": "limit",
          "type": "uint256"
        }
      ],
      "name": "tokens",
      "outputs": [
        {
          "internalType": "uint256",
          "name": "total",
          "type": "uint256"
        },
        {
          "internalType": "uint256[]",
          "name": "tokenIds",
          "type": "uint256[]"
        }
      ],
      "stateMutability": "view",
      "type": "function"
    },
    {
      "inputs": [
        {
          "internalType": "address",
          "name": "owner",
          "type": "address"
        },
        {
          "internalType": "uint256",
          "name": "offset",
          "type": "uint256"
        },
        {
          "internalType": "uint256",
          "name": "limit",
          "type": "uint256"
        }
      ],
      "name": "tokensOf",
      "outputs": [
        {
          "internalType": "uint256",
          "name": "total",
          "type": "uint256"
        },
        {
          "internalType": "uint256[]",
          "name": "tokenIds",
          "type": "uint256[]"
        }
      ],
      "stateMutability": "view",
      "type": "function"
    },
    {
      "inputs": [],
      "name": "totalSupply",
      "outputs": [
        {
          "internalType": "uint256",
          "name": "",
          "type": "uint256"
        }
      ],
      "stateMutability": "view",
      "type": "function"
    },
    {
      "inputs": [
        {
          "internalType": "address",
          "name": "from",
          "type": "address"
        },
        {
          "internalType": "address",
          "name": "to",
          "type": "address"
        },
        {
          "internalType": "uint256",
          "name": "tokenId",
          "type": "uint256"
        }
      ],
      "name": "transferFrom",
      "outputs": [],
      "stateMutability": "nonpayable",
      "type": "function"
    },
    {
      "inputs": [
        {
          "internalType": "address",
          "name": "minter_",
          "type": "address"
        }
      ],
      "name": "addMinter",
      "outputs": [],
      "stateMutability": "nonpayable",
      "type": "function"
    },
    {
      "inputs": [
        {
          "internalType": "address",
          "name": "minter_",
          "type": "address"
        }
      ],
      "name": "removeMinter",
      "outputs": [],
      "stateMutability": "nonpayable",
      "type": "function"
    },
    {
      "inputs": [
        {
          "internalType": "string",
          "name": "newuri",
          "type": "string"
        }
      ],
      "name": "setURI",
      "outputs": [],
      "stateMutability": "nonpayable",
      "type": "function"
    },
    {
      "inputs": [
        {
          "internalType": "uint256",
          "name": "tokenId",
          "type": "uint256"
        }
      ],
      "name": "tokenURI",
      "outputs": [
        {
          "internalType": "string",
          "name": "",
          "type": "string"
        }
      ],
      "stateMutability": "view",
      "type": "function"
    },
    {
      "inputs": [
        {
          "internalType": "address",
          "name": "to",
          "type": "address"
        }
      ],
      "name": "mint",
      "outputs": [],
      "stateMutability": "nonpayable",
      "type": "function"
    },
    {
      "inputs": [
        {
          "internalType": "address",
          "name": "to",
          "type": "address"
        },
        {
          "internalType": "uint256",
          "name": "amount",
          "type": "uint256"
        }
      ],
      "name": "mintBatch",
      "outputs": [],
      "stateMutability": "nonpayable",
      "type": "function"
    },
    {
      "inputs": [
        {
          "internalType": "address[]",
          "name": "_initialOwners",
          "type": "address[]"
        }
      ],
      "name": "batchAddItemByAddress",
      "outputs": [],
      "stateMutability": "nonpayable",
      "type": "function"
    },
    {
      "inputs": [
        {
          "internalType": "bytes4",
          "name": "interfaceId",
          "type": "bytes4"
        }
      ],
      "name": "supportsInterface",
      "outputs": [
        {
          "internalType": "bool",
          "name": "",
          "type": "bool"
        }
      ],
      "stateMutability": "view",
      "type": "function"
    }
  ],
  "bytecode": "0x60806040523480156200001157600080fd5b5060405162005908380380620059088339818101604052810190620000379190620009bf565b828281600290805190602001906200005192919062000772565b5080600390805190602001906200006a92919062000772565b5050506200007d620003ff60201b60201c565b1562000337576000600167ffffffffffffffff811115620000a357620000a262000851565b5b604051908082528060200260200182016040528015620000d25781602001602082028036833780820191505090505b509050600081600081518110620000ee57620000ed62000a78565b5b602002602001019073ffffffffffffffffffffffffffffffffffffffff16908173ffffffffffffffffffffffffffffffffffffffff168152505073088800000000000000000000000000000000000173ffffffffffffffffffffffffffffffffffffffff166310128d3e826040518263ffffffff1660e01b815260040162000177919062000ba9565b600060405180830381600087803b1580156200019257600080fd5b505af1158015620001a7573d6000803e3d6000fd5b5050505073088800000000000000000000000000000000000073ffffffffffffffffffffffffffffffffffffffff1663c55b6bb73060006040518363ffffffff1660e01b8152600401620001fd92919062000bde565b600060405180830381600087803b1580156200021857600080fd5b505af11580156200022d573d6000803e3d6000fd5b50505050600073ffffffffffffffffffffffffffffffffffffffff1673088800000000000000000000000000000000000073ffffffffffffffffffffffffffffffffffffffff166364efb22b306040518263ffffffff1660e01b815260040162000298919062000c0b565b602060405180830381865afa158015620002b6573d6000803e3d6000fd5b505050506040513d601f19601f82011682018060405250810190620002dc919062000c59565b73ffffffffffffffffffffffffffffffffffffffff161462000335576040517f08c379a00000000000000000000000000000000000000000000000000000000081526004016200032c9062000cec565b60405180910390fd5b505b6200035b6000801b6200034f6200044760201b60201c565b6200044f60201b60201c565b6200039c7f9f2df0fed2c77648de5860a4cc508cd0818c85b8b8a1ab4ceeef8d981c8956a6620003906200044760201b60201c565b6200044f60201b60201c565b620003dd7f65d7a28e3265b37a6474929f336521b332c1681b933f6cb9f3376673440d862a620003d16200044760201b60201c565b6200044f60201b60201c565b620003ee816200046560201b60201c565b6001600d8190555050505062000e0a565b600062000441731820a4b7618bde71dce8cdc73aab6c95905fad2473ffffffffffffffffffffffffffffffffffffffff16620004e760201b620016331760201c565b15905090565b600033905090565b620004618282620004fa60201b60201c565b5050565b620004896000801b6200047d6200044760201b60201c565b6200054260201b60201c565b620004cb576040517f08c379a0000000000000000000000000000000000000000000000000000000008152600401620004c29062000d84565b60405180910390fd5b80600c9080519060200190620004e392919062000772565b5050565b600080823b905060008111915050919050565b620005118282620005ac60201b620016461760201c565b6200053d81600160008581526020019081526020016000206200069d60201b620017261790919060201c565b505050565b600080600084815260200190815260200160002060000160008373ffffffffffffffffffffffffffffffffffffffff1673ffffffffffffffffffffffffffffffffffffffff16815260200190815260200160002060009054906101000a900460ff16905092915050565b620005be82826200054260201b60201c565b6200069957600160008084815260200190815260200160002060000160008373ffffffffffffffffffffffffffffffffffffffff1673ffffffffffffffffffffffffffffffffffffffff16815260200190815260200160002060006101000a81548160ff0219169083151502179055506200063e6200044760201b60201c565b73ffffffffffffffffffffffffffffffffffffffff168173ffffffffffffffffffffffffffffffffffffffff16837f2f8788117e7eff1d82e926ec794901d17c78024a50270940304540a733656f0d60405160405180910390a45b5050565b6000620006cd836000018373ffffffffffffffffffffffffffffffffffffffff1660001b620006d560201b60201c565b905092915050565b6000620006e983836200074f60201b60201c565b6200074457826000018290806001815401808255809150506001900390600052602060002001600090919091909150558260000180549050836001016000848152602001908152602001600020819055506001905062000749565b600090505b92915050565b600080836001016000848152602001908152602001600020541415905092915050565b828054620007809062000dd5565b90600052602060002090601f016020900481019282620007a45760008555620007f0565b82601f10620007bf57805160ff1916838001178555620007f0565b82800160010185558215620007f0579182015b82811115620007ef578251825591602001919060010190620007d2565b5b509050620007ff919062000803565b5090565b5b808211156200081e57600081600090555060010162000804565b5090565b6000604051905090565b600080fd5b600080fd5b600080fd5b600080fd5b6000601f19601f8301169050919050565b7f4e487b7100000000000000000000000000000000000000000000000000000000600052604160045260246000fd5b6200088b8262000840565b810181811067ffffffffffffffff82111715620008ad57620008ac62000851565b5b80604052505050565b6000620008c262000822565b9050620008d0828262000880565b919050565b600067ffffffffffffffff821115620008f357620008f262000851565b5b620008fe8262000840565b9050602081019050919050565b60005b838110156200092b5780820151818401526020810190506200090e565b838111156200093b576000848401525b50505050565b6000620009586200095284620008d5565b620008b6565b9050828152602081018484840111156200097757620009766200083b565b5b620009848482856200090b565b509392505050565b600082601f830112620009a457620009a362000836565b5b8151620009b684826020860162000941565b91505092915050565b600080600060608486031215620009db57620009da6200082c565b5b600084015167ffffffffffffffff811115620009fc57620009fb62000831565b5b62000a0a868287016200098c565b935050602084015167ffffffffffffffff81111562000a2e5762000a2d62000831565b5b62000a3c868287016200098c565b925050604084015167ffffffffffffffff81111562000a605762000a5f62000831565b5b62000a6e868287016200098c565b9150509250925092565b7f4e487b7100000000000000000000000000000000000000000000000000000000600052603260045260246000fd5b600081519050919050565b600082825260208201905092915050565b6000819050602082019050919050565b600073ffffffffffffffffffffffffffffffffffffffff82169050919050565b600062000b008262000ad3565b9050919050565b62000b128162000af3565b82525050565b600062000b26838362000b07565b60208301905092915050565b6000602082019050919050565b600062000b4c8262000aa7565b62000b58818562000ab2565b935062000b658362000ac3565b8060005b8381101562000b9c57815162000b80888262000b18565b975062000b8d8362000b32565b92505060018101905062000b69565b5085935050505092915050565b6000602082019050818103600083015262000bc5818462000b3f565b905092915050565b62000bd88162000af3565b82525050565b600060408201905062000bf5600083018562000bcd565b62000c04602083018462000bcd565b9392505050565b600060208201905062000c22600083018462000bcd565b92915050565b62000c338162000af3565b811462000c3f57600080fd5b50565b60008151905062000c538162000c28565b92915050565b60006020828403121562000c725762000c716200082c565b5b600062000c828482850162000c42565b91505092915050565b600082825260208201905092915050565b7f726571756972652061646d696e203d3d206e756c6c0000000000000000000000600082015250565b600062000cd460158362000c8b565b915062000ce18262000c9c565b602082019050919050565b6000602082019050818103600083015262000d078162000cc5565b9050919050565b7f4352433732314e61747572654175746f49643a206d757374206861766520616460008201527f6d696e20726f6c6520746f207365742055524900000000000000000000000000602082015250565b600062000d6c60338362000c8b565b915062000d798262000d0e565b604082019050919050565b6000602082019050818103600083015262000d9f8162000d5d565b9050919050565b7f4e487b7100000000000000000000000000000000000000000000000000000000600052602260045260246000fd5b6000600282049050600182168062000dee57607f821691505b60208210810362000e045762000e0362000da6565b5b50919050565b614aee8062000e1a6000396000f3fe608060405234801561001057600080fd5b50600436106102065760003560e01c80636352211e1161011a578063a217fddf116100ad578063ca15c8731161007c578063ca15c87314610631578063d539139314610661578063d547741f1461067f578063e63ab1e91461069b578063e985e9c5146106b957610206565b8063a217fddf146105ab578063a22cb465146105c9578063b88d4fde146105e5578063c87b56dd1461060157610206565b80639010d07c116100e95780639010d07c1461051157806391d148541461054157806395d89b4114610571578063983b2d561461058f57610206565b80636352211e146104645780636a6278421461049457806370a08231146104b05780638b4864d6146104e057610206565b8063248a9ca31161019d5780633092afd51161016c5780633092afd5146103c457806336568abe146103e057806342842e0e146103fc5780634f6ccce71461041857806354777f411461044857610206565b8063248a9ca31461032c578063248b71fc1461035c5780632f2ff15d146103785780632f745c591461039457610206565b8063095ea7b3116101d9578063095ea7b3146102a557806318160ddd146102c157806323185dc9146102df57806323b872dd1461031057610206565b806301ffc9a71461020b57806302fe53051461023b57806306fdde0314610257578063081812fc14610275575b600080fd5b6102256004803603810190610220919061312d565b6106e9565b6040516102329190613175565b60405180910390f35b610255600480360381019061025091906132d6565b61070b565b005b61025f610778565b60405161026c91906133a7565b60405180910390f35b61028f600480360381019061028a91906133ff565b61080a565b60405161029c919061346d565b60405180910390f35b6102bf60048036038101906102ba91906134b4565b61088f565b005b6102c96109a6565b6040516102d69190613503565b60405180910390f35b6102f960048036038101906102f4919061351e565b6109b3565b60405161030792919061362f565b60405180910390f35b61032a6004803603810190610325919061365f565b610b02565b005b610346600480360381019061034191906136e8565b610b62565b6040516103539190613724565b60405180910390f35b610376600480360381019061037191906134b4565b610b81565b005b610392600480360381019061038d919061373f565b610c41565b005b6103ae60048036038101906103a991906134b4565b610c6a565b6040516103bb9190613503565b60405180910390f35b6103de60048036038101906103d9919061377f565b610d0f565b005b6103fa60048036038101906103f5919061373f565b610d3c565b005b6104166004803603810190610411919061365f565b610dbf565b005b610432600480360381019061042d91906133ff565b610ddf565b60405161043f9190613503565b60405180910390f35b610462600480360381019061045d919061380c565b610e50565b005b61047e600480360381019061047991906133ff565b610f40565b60405161048b919061346d565b60405180910390f35b6104ae60048036038101906104a9919061377f565b610ff1565b005b6104ca60048036038101906104c5919061377f565b611089565b6040516104d79190613503565b60405180910390f35b6104fa60048036038101906104f59190613859565b611140565b60405161050892919061362f565b60405180910390f35b61052b60048036038101906105269190613899565b61128c565b604051610538919061346d565b60405180910390f35b61055b6004803603810190610556919061373f565b6112bb565b6040516105689190613175565b60405180910390f35b610579611325565b60405161058691906133a7565b60405180910390f35b6105a960048036038101906105a4919061377f565b6113b7565b005b6105b36113e4565b6040516105c09190613724565b60405180910390f35b6105e360048036038101906105de9190613905565b6113eb565b005b6105ff60048036038101906105fa91906139e6565b611401565b005b61061b600480360381019061061691906133ff565b611463565b60405161062891906133a7565b60405180910390f35b61064b600480360381019061064691906136e8565b61150a565b6040516106589190613503565b60405180910390f35b61066961152e565b6040516106769190613724565b60405180910390f35b6106996004803603810190610694919061373f565b611552565b005b6106a361157b565b6040516106b09190613724565b60405180910390f35b6106d360048036038101906106ce9190613a69565b61159f565b6040516106e09190613175565b60405180910390f35b60006106f482611756565b806107045750610703826117d0565b5b9050919050565b61071f6000801b61071a61184a565b6112bb565b61075e576040517f08c379a000000000000000000000000000000000000000000000000000000000815260040161075590613b1b565b60405180910390fd5b80600c908051906020019061077492919061301e565b5050565b60606002805461078790613b6a565b80601f01602080910402602001604051908101604052809291908181526020018280546107b390613b6a565b80156108005780601f106107d557610100808354040283529160200191610800565b820191906000526020600020905b8154815290600101906020018083116107e357829003601f168201915b5050505050905090565b600061081582611852565b610854576040517f08c379a000000000000000000000000000000000000000000000000000000000815260040161084b90613c0d565b60405180910390fd5b6006600083815260200190815260200160002060009054906101000a900473ffffffffffffffffffffffffffffffffffffffff169050919050565b600061089a82610f40565b90508073ffffffffffffffffffffffffffffffffffffffff168373ffffffffffffffffffffffffffffffffffffffff160361090a576040517f08c379a000000000000000000000000000000000000000000000000000000000815260040161090190613c9f565b60405180910390fd5b8073ffffffffffffffffffffffffffffffffffffffff1661092961184a565b73ffffffffffffffffffffffffffffffffffffffff16148061095857506109578161095261184a565b61159f565b5b610997576040517f08c379a000000000000000000000000000000000000000000000000000000000815260040161098e90613d31565b60405180910390fd5b6109a183836118be565b505050565b6000600a80549050905090565b600060606109c085611089565b915060008214806109d15750818410155b15610a2a5781600067ffffffffffffffff8111156109f2576109f16131ab565b5b604051908082528060200260200182016040528015610a205781602001602082028036833780820191505090505b5091509150610afa565b6000610a4a8486610a3b9190613d80565b8461197790919063ffffffff16565b90508481610a589190613dd6565b67ffffffffffffffff811115610a7157610a706131ab565b5b604051908082528060200260200182016040528015610a9f5781602001602082028036833780820191505090505b50915060008590505b81811015610af757610aba8782610c6a565b838783610ac79190613dd6565b81518110610ad857610ad7613e0a565b5b6020026020010181815250508080610aef90613e39565b915050610aa8565b50505b935093915050565b610b13610b0d61184a565b82611990565b610b52576040517f08c379a0000000000000000000000000000000000000000000000000000000008152600401610b4990613ef3565b60405180910390fd5b610b5d838383611a6e565b505050565b6000806000838152602001908152602001600020600101549050919050565b610bb27f9f2df0fed2c77648de5860a4cc508cd0818c85b8b8a1ab4ceeef8d981c8956a6610bad61184a565b6112bb565b610bf1576040517f08c379a0000000000000000000000000000000000000000000000000000000008152600401610be890613f85565b60405180910390fd5b6000600d54905060005b82811015610c2957610c18848284610c139190613d80565b611cc9565b80610c2290613e39565b9050610bfb565b508181610c369190613d80565b600d81905550505050565b610c4a82610b62565b610c5b81610c5661184a565b611e96565b610c658383611f33565b505050565b6000610c7583611089565b8210610cb6576040517f08c379a0000000000000000000000000000000000000000000000000000000008152600401610cad90614017565b60405180910390fd5b600860008473ffffffffffffffffffffffffffffffffffffffff1673ffffffffffffffffffffffffffffffffffffffff168152602001908152602001600020600083815260200190815260200160002054905092915050565b610d397f9f2df0fed2c77648de5860a4cc508cd0818c85b8b8a1ab4ceeef8d981c8956a682611552565b50565b610d4461184a565b73ffffffffffffffffffffffffffffffffffffffff168173ffffffffffffffffffffffffffffffffffffffff1614610db1576040517f08c379a0000000000000000000000000000000000000000000000000000000008152600401610da8906140a9565b60405180910390fd5b610dbb8282611f67565b5050565b610dda83838360405180602001604052806000815250611401565b505050565b6000610de96109a6565b8210610e2a576040517f08c379a0000000000000000000000000000000000000000000000000000000008152600401610e219061413b565b60405180910390fd5b600a8281548110610e3e57610e3d613e0a565b5b90600052602060002001549050919050565b610e817f9f2df0fed2c77648de5860a4cc508cd0818c85b8b8a1ab4ceeef8d981c8956a6610e7c61184a565b6112bb565b610ec0576040517f08c379a0000000000000000000000000000000000000000000000000000000008152600401610eb790613f85565b60405180910390fd5b60008282905090506000600d54905060005b82811015610f2757610f16858583818110610ef057610eef613e0a565b5b9050602002016020810190610f05919061377f565b8284610f119190613d80565b611cc9565b80610f2090613e39565b9050610ed2565b508181610f349190613d80565b600d8190555050505050565b6000806004600084815260200190815260200160002060009054906101000a900473ffffffffffffffffffffffffffffffffffffffff169050600073ffffffffffffffffffffffffffffffffffffffff168173ffffffffffffffffffffffffffffffffffffffff1603610fe8576040517f08c379a0000000000000000000000000000000000000000000000000000000008152600401610fdf906141cd565b60405180910390fd5b80915050919050565b6110227f9f2df0fed2c77648de5860a4cc508cd0818c85b8b8a1ab4ceeef8d981c8956a661101d61184a565b6112bb565b611061576040517f08c379a000000000000000000000000000000000000000000000000000000000815260040161105890613f85565b60405180910390fd5b6000600d5490506110728282611cc9565b60018161107f9190613d80565b600d819055505050565b60008073ffffffffffffffffffffffffffffffffffffffff168273ffffffffffffffffffffffffffffffffffffffff16036110f9576040517f08c379a00000000000000000000000000000000000000000000000000000000081526004016110f09061425f565b60405180910390fd5b600560008373ffffffffffffffffffffffffffffffffffffffff1673ffffffffffffffffffffffffffffffffffffffff168152602001908152602001600020549050919050565b6000606061114c6109a6565b9150600082148061115d5750818410155b156111b65781600067ffffffffffffffff81111561117e5761117d6131ab565b5b6040519080825280602002602001820160405280156111ac5781602001602082028036833780820191505090505b5091509150611285565b60006111d684866111c79190613d80565b8461197790919063ffffffff16565b905084816111e49190613dd6565b67ffffffffffffffff8111156111fd576111fc6131ab565b5b60405190808252806020026020018201604052801561122b5781602001602082028036833780820191505090505b50915060008590505b818110156112825761124581610ddf565b8387836112529190613dd6565b8151811061126357611262613e0a565b5b602002602001018181525050808061127a90613e39565b915050611234565b50505b9250929050565b60006112b38260016000868152602001908152602001600020611f9b90919063ffffffff16565b905092915050565b600080600084815260200190815260200160002060000160008373ffffffffffffffffffffffffffffffffffffffff1673ffffffffffffffffffffffffffffffffffffffff16815260200190815260200160002060009054906101000a900460ff16905092915050565b60606003805461133490613b6a565b80601f016020809104026020016040519081016040528092919081815260200182805461136090613b6a565b80156113ad5780601f10611382576101008083540402835291602001916113ad565b820191906000526020600020905b81548152906001019060200180831161139057829003601f168201915b5050505050905090565b6113e17f9f2df0fed2c77648de5860a4cc508cd0818c85b8b8a1ab4ceeef8d981c8956a682610c41565b50565b6000801b81565b6113fd6113f661184a565b8383611fb5565b5050565b61141261140c61184a565b83611990565b611451576040517f08c379a000000000000000000000000000000000000000000000000000000000815260040161144890613ef3565b60405180910390fd5b61145d84848484612121565b50505050565b606061146e82611852565b6114ad576040517f08c379a00000000000000000000000000000000000000000000000000000000081526004016114a4906142f1565b60405180910390fd5b60006114b761217d565b905060008151116114d75760405180602001604052806000815250611502565b806114e18461220f565b6040516020016114f2929190614399565b6040516020818303038152906040525b915050919050565b60006115276001600084815260200190815260200160002061236f565b9050919050565b7f9f2df0fed2c77648de5860a4cc508cd0818c85b8b8a1ab4ceeef8d981c8956a681565b61155b82610b62565b61156c8161156761184a565b611e96565b6115768383611f67565b505050565b7f65d7a28e3265b37a6474929f336521b332c1681b933f6cb9f3376673440d862a81565b6000600760008473ffffffffffffffffffffffffffffffffffffffff1673ffffffffffffffffffffffffffffffffffffffff16815260200190815260200160002060008373ffffffffffffffffffffffffffffffffffffffff1673ffffffffffffffffffffffffffffffffffffffff16815260200190815260200160002060009054906101000a900460ff16905092915050565b600080823b905060008111915050919050565b61165082826112bb565b61172257600160008084815260200190815260200160002060000160008373ffffffffffffffffffffffffffffffffffffffff1673ffffffffffffffffffffffffffffffffffffffff16815260200190815260200160002060006101000a81548160ff0219169083151502179055506116c761184a565b73ffffffffffffffffffffffffffffffffffffffff168173ffffffffffffffffffffffffffffffffffffffff16837f2f8788117e7eff1d82e926ec794901d17c78024a50270940304540a733656f0d60405160405180910390a45b5050565b600061174e836000018373ffffffffffffffffffffffffffffffffffffffff1660001b612384565b905092915050565b60007f5a05180f000000000000000000000000000000000000000000000000000000007bffffffffffffffffffffffffffffffffffffffffffffffffffffffff1916827bffffffffffffffffffffffffffffffffffffffffffffffffffffffff191614806117c957506117c8826123f4565b5b9050919050565b60007f780e9d63000000000000000000000000000000000000000000000000000000007bffffffffffffffffffffffffffffffffffffffffffffffffffffffff1916827bffffffffffffffffffffffffffffffffffffffffffffffffffffffff1916148061184357506118428261246e565b5b9050919050565b600033905090565b60008073ffffffffffffffffffffffffffffffffffffffff166004600084815260200190815260200160002060009054906101000a900473ffffffffffffffffffffffffffffffffffffffff1673ffffffffffffffffffffffffffffffffffffffff1614159050919050565b816006600083815260200190815260200160002060006101000a81548173ffffffffffffffffffffffffffffffffffffffff021916908373ffffffffffffffffffffffffffffffffffffffff160217905550808273ffffffffffffffffffffffffffffffffffffffff1661193183610f40565b73ffffffffffffffffffffffffffffffffffffffff167f8c5be1e5ebec7d5bd14f71427d1e84f3dd0314c0f7b2291e5b200ac8c7c3b92560405160405180910390a45050565b60008183106119865781611988565b825b905092915050565b600061199b82611852565b6119da576040517f08c379a00000000000000000000000000000000000000000000000000000000081526004016119d19061443a565b60405180910390fd5b60006119e583610f40565b90508073ffffffffffffffffffffffffffffffffffffffff168473ffffffffffffffffffffffffffffffffffffffff161480611a5457508373ffffffffffffffffffffffffffffffffffffffff16611a3c8461080a565b73ffffffffffffffffffffffffffffffffffffffff16145b80611a655750611a64818561159f565b5b91505092915050565b8273ffffffffffffffffffffffffffffffffffffffff16611a8e82610f40565b73ffffffffffffffffffffffffffffffffffffffff1614611ae4576040517f08c379a0000000000000000000000000000000000000000000000000000000008152600401611adb906144cc565b60405180910390fd5b600073ffffffffffffffffffffffffffffffffffffffff168273ffffffffffffffffffffffffffffffffffffffff1603611b53576040517f08c379a0000000000000000000000000000000000000000000000000000000008152600401611b4a9061455e565b60405180910390fd5b611b5e838383612550565b611b696000826118be565b6001600560008573ffffffffffffffffffffffffffffffffffffffff1673ffffffffffffffffffffffffffffffffffffffff1681526020019081526020016000206000828254611bb99190613dd6565b925050819055506001600560008473ffffffffffffffffffffffffffffffffffffffff1673ffffffffffffffffffffffffffffffffffffffff1681526020019081526020016000206000828254611c109190613d80565b92505081905550816004600083815260200190815260200160002060006101000a81548173ffffffffffffffffffffffffffffffffffffffff021916908373ffffffffffffffffffffffffffffffffffffffff160217905550808273ffffffffffffffffffffffffffffffffffffffff168473ffffffffffffffffffffffffffffffffffffffff167fddf252ad1be2c89b69c2b068fc378daa952ba7f163c4a11628f55a4df523b3ef60405160405180910390a4505050565b600073ffffffffffffffffffffffffffffffffffffffff168273ffffffffffffffffffffffffffffffffffffffff1603611d38576040517f08c379a0000000000000000000000000000000000000000000000000000000008152600401611d2f906145ca565b60405180910390fd5b611d4181611852565b15611d81576040517f08c379a0000000000000000000000000000000000000000000000000000000008152600401611d7890614636565b60405180910390fd5b611d8d60008383612550565b6001600560008473ffffffffffffffffffffffffffffffffffffffff1673ffffffffffffffffffffffffffffffffffffffff1681526020019081526020016000206000828254611ddd9190613d80565b92505081905550816004600083815260200190815260200160002060006101000a81548173ffffffffffffffffffffffffffffffffffffffff021916908373ffffffffffffffffffffffffffffffffffffffff160217905550808273ffffffffffffffffffffffffffffffffffffffff16600073ffffffffffffffffffffffffffffffffffffffff167fddf252ad1be2c89b69c2b068fc378daa952ba7f163c4a11628f55a4df523b3ef60405160405180910390a45050565b611ea082826112bb565b611f2f57611ec58173ffffffffffffffffffffffffffffffffffffffff166014612662565b611ed38360001c6020612662565b604051602001611ee49291906146ee565b6040516020818303038152906040526040517f08c379a0000000000000000000000000000000000000000000000000000000008152600401611f2691906133a7565b60405180910390fd5b5050565b611f3d8282611646565b611f62816001600085815260200190815260200160002061172690919063ffffffff16565b505050565b611f71828261289e565b611f96816001600085815260200190815260200160002061297f90919063ffffffff16565b505050565b6000611faa83600001836129af565b60001c905092915050565b8173ffffffffffffffffffffffffffffffffffffffff168373ffffffffffffffffffffffffffffffffffffffff1603612023576040517f08c379a000000000000000000000000000000000000000000000000000000000815260040161201a90614774565b60405180910390fd5b80600760008573ffffffffffffffffffffffffffffffffffffffff1673ffffffffffffffffffffffffffffffffffffffff16815260200190815260200160002060008473ffffffffffffffffffffffffffffffffffffffff1673ffffffffffffffffffffffffffffffffffffffff16815260200190815260200160002060006101000a81548160ff0219169083151502179055508173ffffffffffffffffffffffffffffffffffffffff168373ffffffffffffffffffffffffffffffffffffffff167f17307eab39ab6107e8899845ad3d59bd9653f200f220920489ca2b5937696c31836040516121149190613175565b60405180910390a3505050565b61212c848484611a6e565b612138848484846129da565b612177576040517f08c379a000000000000000000000000000000000000000000000000000000000815260040161216e90614806565b60405180910390fd5b50505050565b6060600c805461218c90613b6a565b80601f01602080910402602001604051908101604052809291908181526020018280546121b890613b6a565b80156122055780601f106121da57610100808354040283529160200191612205565b820191906000526020600020905b8154815290600101906020018083116121e857829003601f168201915b5050505050905090565b606060008203612256576040518060400160405280600181526020017f3000000000000000000000000000000000000000000000000000000000000000815250905061236a565b600082905060005b6000821461228857808061227190613e39565b915050600a826122819190614855565b915061225e565b60008167ffffffffffffffff8111156122a4576122a36131ab565b5b6040519080825280601f01601f1916602001820160405280156122d65781602001600182028036833780820191505090505b5090505b60008514612363576001826122ef9190613dd6565b9150600a856122fe9190614886565b603061230a9190613d80565b60f81b8183815181106123205761231f613e0a565b5b60200101907effffffffffffffffffffffffffffffffffffffffffffffffffffffffffffff1916908160001a905350600a8561235c9190614855565b94506122da565b8093505050505b919050565b600061237d82600001612b61565b9050919050565b60006123908383612b72565b6123e95782600001829080600181540180825580915050600190039060005260206000200160009091909190915055826000018054905083600101600084815260200190815260200160002081905550600190506123ee565b600090505b92915050565b60007f7965db0b000000000000000000000000000000000000000000000000000000007bffffffffffffffffffffffffffffffffffffffffffffffffffffffff1916827bffffffffffffffffffffffffffffffffffffffffffffffffffffffff19161480612467575061246682612b95565b5b9050919050565b60007f80ac58cd000000000000000000000000000000000000000000000000000000007bffffffffffffffffffffffffffffffffffffffffffffffffffffffff1916827bffffffffffffffffffffffffffffffffffffffffffffffffffffffff1916148061253957507f5b5e139f000000000000000000000000000000000000000000000000000000007bffffffffffffffffffffffffffffffffffffffffffffffffffffffff1916827bffffffffffffffffffffffffffffffffffffffffffffffffffffffff1916145b80612549575061254882611756565b5b9050919050565b61255b838383612bff565b600073ffffffffffffffffffffffffffffffffffffffff168373ffffffffffffffffffffffffffffffffffffffff160361259d5761259881612c04565b6125dc565b8173ffffffffffffffffffffffffffffffffffffffff168373ffffffffffffffffffffffffffffffffffffffff16146125db576125da8382612c4d565b5b5b600073ffffffffffffffffffffffffffffffffffffffff168273ffffffffffffffffffffffffffffffffffffffff160361261e5761261981612dba565b61265d565b8273ffffffffffffffffffffffffffffffffffffffff168273ffffffffffffffffffffffffffffffffffffffff161461265c5761265b8282612e8b565b5b5b505050565b60606000600283600261267591906148b7565b61267f9190613d80565b67ffffffffffffffff811115612698576126976131ab565b5b6040519080825280601f01601f1916602001820160405280156126ca5781602001600182028036833780820191505090505b5090507f30000000000000000000000000000000000000000000000000000000000000008160008151811061270257612701613e0a565b5b60200101907effffffffffffffffffffffffffffffffffffffffffffffffffffffffffffff1916908160001a9053507f78000000000000000000000000000000000000000000000000000000000000008160018151811061276657612765613e0a565b5b60200101907effffffffffffffffffffffffffffffffffffffffffffffffffffffffffffff1916908160001a905350600060018460026127a691906148b7565b6127b09190613d80565b90505b6001811115612850577f3031323334353637383961626364656600000000000000000000000000000000600f8616601081106127f2576127f1613e0a565b5b1a60f81b82828151811061280957612808613e0a565b5b60200101907effffffffffffffffffffffffffffffffffffffffffffffffffffffffffffff1916908160001a905350600485901c94508061284990614911565b90506127b3565b5060008414612894576040517f08c379a000000000000000000000000000000000000000000000000000000000815260040161288b90614986565b60405180910390fd5b8091505092915050565b6128a882826112bb565b1561297b57600080600084815260200190815260200160002060000160008373ffffffffffffffffffffffffffffffffffffffff1673ffffffffffffffffffffffffffffffffffffffff16815260200190815260200160002060006101000a81548160ff02191690831515021790555061292061184a565b73ffffffffffffffffffffffffffffffffffffffff168173ffffffffffffffffffffffffffffffffffffffff16837ff6391f5c32d9c69d2a47ea670b442974b53935d1edc7fd64eb21e047a839171b60405160405180910390a45b5050565b60006129a7836000018373ffffffffffffffffffffffffffffffffffffffff1660001b612f0a565b905092915050565b60008260000182815481106129c7576129c6613e0a565b5b9060005260206000200154905092915050565b60006129fb8473ffffffffffffffffffffffffffffffffffffffff16611633565b15612b54578373ffffffffffffffffffffffffffffffffffffffff1663150b7a02612a2461184a565b8786866040518563ffffffff1660e01b8152600401612a4694939291906149fb565b6020604051808303816000875af1925050508015612a8257506040513d601f19601f82011682018060405250810190612a7f9190614a5c565b60015b612b04573d8060008114612ab2576040519150601f19603f3d011682016040523d82523d6000602084013e612ab7565b606091505b506000815103612afc576040517f08c379a0000000000000000000000000000000000000000000000000000000008152600401612af390614806565b60405180910390fd5b805181602001fd5b63150b7a0260e01b7bffffffffffffffffffffffffffffffffffffffffffffffffffffffff1916817bffffffffffffffffffffffffffffffffffffffffffffffffffffffff191614915050612b59565b600190505b949350505050565b600081600001805490509050919050565b600080836001016000848152602001908152602001600020541415905092915050565b60007f01ffc9a7000000000000000000000000000000000000000000000000000000007bffffffffffffffffffffffffffffffffffffffffffffffffffffffff1916827bffffffffffffffffffffffffffffffffffffffffffffffffffffffff1916149050919050565b505050565b600a80549050600b600083815260200190815260200160002081905550600a81908060018154018082558091505060019003906000526020600020016000909190919091505550565b60006001612c5a84611089565b612c649190613dd6565b9050600060096000848152602001908152602001600020549050818114612d49576000600860008673ffffffffffffffffffffffffffffffffffffffff1673ffffffffffffffffffffffffffffffffffffffff168152602001908152602001600020600084815260200190815260200160002054905080600860008773ffffffffffffffffffffffffffffffffffffffff1673ffffffffffffffffffffffffffffffffffffffff168152602001908152602001600020600084815260200190815260200160002081905550816009600083815260200190815260200160002081905550505b6009600084815260200190815260200160002060009055600860008573ffffffffffffffffffffffffffffffffffffffff1673ffffffffffffffffffffffffffffffffffffffff16815260200190815260200160002060008381526020019081526020016000206000905550505050565b60006001600a80549050612dce9190613dd6565b90506000600b60008481526020019081526020016000205490506000600a8381548110612dfe57612dfd613e0a565b5b9060005260206000200154905080600a8381548110612e2057612e1f613e0a565b5b906000526020600020018190555081600b600083815260200190815260200160002081905550600b600085815260200190815260200160002060009055600a805480612e6f57612e6e614a89565b5b6001900381819060005260206000200160009055905550505050565b6000612e9683611089565b905081600860008573ffffffffffffffffffffffffffffffffffffffff1673ffffffffffffffffffffffffffffffffffffffff168152602001908152602001600020600083815260200190815260200160002081905550806009600084815260200190815260200160002081905550505050565b60008083600101600084815260200190815260200160002054905060008114613012576000600182612f3c9190613dd6565b9050600060018660000180549050612f549190613dd6565b9050818114612fc3576000866000018281548110612f7557612f74613e0a565b5b9060005260206000200154905080876000018481548110612f9957612f98613e0a565b5b90600052602060002001819055508387600101600083815260200190815260200160002081905550505b85600001805480612fd757612fd6614a89565b5b600190038181906000526020600020016000905590558560010160008681526020019081526020016000206000905560019350505050613018565b60009150505b92915050565b82805461302a90613b6a565b90600052602060002090601f01602090048101928261304c5760008555613093565b82601f1061306557805160ff1916838001178555613093565b82800160010185558215613093579182015b82811115613092578251825591602001919060010190613077565b5b5090506130a091906130a4565b5090565b5b808211156130bd5760008160009055506001016130a5565b5090565b6000604051905090565b600080fd5b600080fd5b60007fffffffff0000000000000000000000000000000000000000000000000000000082169050919050565b61310a816130d5565b811461311557600080fd5b50565b60008135905061312781613101565b92915050565b600060208284031215613143576131426130cb565b5b600061315184828501613118565b91505092915050565b60008115159050919050565b61316f8161315a565b82525050565b600060208201905061318a6000830184613166565b92915050565b600080fd5b600080fd5b6000601f19601f8301169050919050565b7f4e487b7100000000000000000000000000000000000000000000000000000000600052604160045260246000fd5b6131e38261319a565b810181811067ffffffffffffffff82111715613202576132016131ab565b5b80604052505050565b60006132156130c1565b905061322182826131da565b919050565b600067ffffffffffffffff821115613241576132406131ab565b5b61324a8261319a565b9050602081019050919050565b82818337600083830152505050565b600061327961327484613226565b61320b565b90508281526020810184848401111561329557613294613195565b5b6132a0848285613257565b509392505050565b600082601f8301126132bd576132bc613190565b5b81356132cd848260208601613266565b91505092915050565b6000602082840312156132ec576132eb6130cb565b5b600082013567ffffffffffffffff81111561330a576133096130d0565b5b613316848285016132a8565b91505092915050565b600081519050919050565b600082825260208201905092915050565b60005b8381101561335957808201518184015260208101905061333e565b83811115613368576000848401525b50505050565b60006133798261331f565b613383818561332a565b935061339381856020860161333b565b61339c8161319a565b840191505092915050565b600060208201905081810360008301526133c1818461336e565b905092915050565b6000819050919050565b6133dc816133c9565b81146133e757600080fd5b50565b6000813590506133f9816133d3565b92915050565b600060208284031215613415576134146130cb565b5b6000613423848285016133ea565b91505092915050565b600073ffffffffffffffffffffffffffffffffffffffff82169050919050565b60006134578261342c565b9050919050565b6134678161344c565b82525050565b6000602082019050613482600083018461345e565b92915050565b6134918161344c565b811461349c57600080fd5b50565b6000813590506134ae81613488565b92915050565b600080604083850312156134cb576134ca6130cb565b5b60006134d98582860161349f565b92505060206134ea858286016133ea565b9150509250929050565b6134fd816133c9565b82525050565b600060208201905061351860008301846134f4565b92915050565b600080600060608486031215613537576135366130cb565b5b60006135458682870161349f565b9350506020613556868287016133ea565b9250506040613567868287016133ea565b9150509250925092565b600081519050919050565b600082825260208201905092915050565b6000819050602082019050919050565b6135a6816133c9565b82525050565b60006135b8838361359d565b60208301905092915050565b6000602082019050919050565b60006135dc82613571565b6135e6818561357c565b93506135f18361358d565b8060005b8381101561362257815161360988826135ac565b9750613614836135c4565b9250506001810190506135f5565b5085935050505092915050565b600060408201905061364460008301856134f4565b818103602083015261365681846135d1565b90509392505050565b600080600060608486031215613678576136776130cb565b5b60006136868682870161349f565b93505060206136978682870161349f565b92505060406136a8868287016133ea565b9150509250925092565b6000819050919050565b6136c5816136b2565b81146136d057600080fd5b50565b6000813590506136e2816136bc565b92915050565b6000602082840312156136fe576136fd6130cb565b5b600061370c848285016136d3565b91505092915050565b61371e816136b2565b82525050565b60006020820190506137396000830184613715565b92915050565b60008060408385031215613756576137556130cb565b5b6000613764858286016136d3565b92505060206137758582860161349f565b9150509250929050565b600060208284031215613795576137946130cb565b5b60006137a38482850161349f565b91505092915050565b600080fd5b600080fd5b60008083601f8401126137cc576137cb613190565b5b8235905067ffffffffffffffff8111156137e9576137e86137ac565b5b602083019150836020820283011115613805576138046137b1565b5b9250929050565b60008060208385031215613823576138226130cb565b5b600083013567ffffffffffffffff811115613841576138406130d0565b5b61384d858286016137b6565b92509250509250929050565b600080604083850312156138705761386f6130cb565b5b600061387e858286016133ea565b925050602061388f858286016133ea565b9150509250929050565b600080604083850312156138b0576138af6130cb565b5b60006138be858286016136d3565b92505060206138cf858286016133ea565b9150509250929050565b6138e28161315a565b81146138ed57600080fd5b50565b6000813590506138ff816138d9565b92915050565b6000806040838503121561391c5761391b6130cb565b5b600061392a8582860161349f565b925050602061393b858286016138f0565b9150509250929050565b600067ffffffffffffffff8211156139605761395f6131ab565b5b6139698261319a565b9050602081019050919050565b600061398961398484613945565b61320b565b9050828152602081018484840111156139a5576139a4613195565b5b6139b0848285613257565b509392505050565b600082601f8301126139cd576139cc613190565b5b81356139dd848260208601613976565b91505092915050565b60008060008060808587031215613a00576139ff6130cb565b5b6000613a0e8782880161349f565b9450506020613a1f8782880161349f565b9350506040613a30878288016133ea565b925050606085013567ffffffffffffffff811115613a5157613a506130d0565b5b613a5d878288016139b8565b91505092959194509250565b60008060408385031215613a8057613a7f6130cb565b5b6000613a8e8582860161349f565b9250506020613a9f8582860161349f565b9150509250929050565b7f4352433732314e61747572654175746f49643a206d757374206861766520616460008201527f6d696e20726f6c6520746f207365742055524900000000000000000000000000602082015250565b6000613b0560338361332a565b9150613b1082613aa9565b604082019050919050565b60006020820190508181036000830152613b3481613af8565b9050919050565b7f4e487b7100000000000000000000000000000000000000000000000000000000600052602260045260246000fd5b60006002820490506001821680613b8257607f821691505b602082108103613b9557613b94613b3b565b5b50919050565b7f4552433732313a20617070726f76656420717565727920666f72206e6f6e657860008201527f697374656e7420746f6b656e0000000000000000000000000000000000000000602082015250565b6000613bf7602c8361332a565b9150613c0282613b9b565b604082019050919050565b60006020820190508181036000830152613c2681613bea565b9050919050565b7f4552433732313a20617070726f76616c20746f2063757272656e74206f776e6560008201527f7200000000000000000000000000000000000000000000000000000000000000602082015250565b6000613c8960218361332a565b9150613c9482613c2d565b604082019050919050565b60006020820190508181036000830152613cb881613c7c565b9050919050565b7f4552433732313a20617070726f76652063616c6c6572206973206e6f74206f7760008201527f6e6572206e6f7220617070726f76656420666f7220616c6c0000000000000000602082015250565b6000613d1b60388361332a565b9150613d2682613cbf565b604082019050919050565b60006020820190508181036000830152613d4a81613d0e565b9050919050565b7f4e487b7100000000000000000000000000000000000000000000000000000000600052601160045260246000fd5b6000613d8b826133c9565b9150613d96836133c9565b9250827fffffffffffffffffffffffffffffffffffffffffffffffffffffffffffffffff03821115613dcb57613dca613d51565b5b828201905092915050565b6000613de1826133c9565b9150613dec836133c9565b925082821015613dff57613dfe613d51565b5b828203905092915050565b7f4e487b7100000000000000000000000000000000000000000000000000000000600052603260045260246000fd5b6000613e44826133c9565b91507fffffffffffffffffffffffffffffffffffffffffffffffffffffffffffffffff8203613e7657613e75613d51565b5b600182019050919050565b7f4552433732313a207472616e736665722063616c6c6572206973206e6f74206f60008201527f776e6572206e6f7220617070726f766564000000000000000000000000000000602082015250565b6000613edd60318361332a565b9150613ee882613e81565b604082019050919050565b60006020820190508181036000830152613f0c81613ed0565b9050919050565b7f4352433732314e61747572654175746f49643a206d7573742068617665206d6960008201527f6e74657220726f6c6520746f206d696e74000000000000000000000000000000602082015250565b6000613f6f60318361332a565b9150613f7a82613f13565b604082019050919050565b60006020820190508181036000830152613f9e81613f62565b9050919050565b7f455243373231456e756d657261626c653a206f776e657220696e646578206f7560008201527f74206f6620626f756e6473000000000000000000000000000000000000000000602082015250565b6000614001602b8361332a565b915061400c82613fa5565b604082019050919050565b6000602082019050818103600083015261403081613ff4565b9050919050565b7f416363657373436f6e74726f6c3a2063616e206f6e6c792072656e6f756e636560008201527f20726f6c657320666f722073656c660000000000000000000000000000000000602082015250565b6000614093602f8361332a565b915061409e82614037565b604082019050919050565b600060208201905081810360008301526140c281614086565b9050919050565b7f455243373231456e756d657261626c653a20676c6f62616c20696e646578206f60008201527f7574206f6620626f756e64730000000000000000000000000000000000000000602082015250565b6000614125602c8361332a565b9150614130826140c9565b604082019050919050565b6000602082019050818103600083015261415481614118565b9050919050565b7f4552433732313a206f776e657220717565727920666f72206e6f6e657869737460008201527f656e7420746f6b656e0000000000000000000000000000000000000000000000602082015250565b60006141b760298361332a565b91506141c28261415b565b604082019050919050565b600060208201905081810360008301526141e6816141aa565b9050919050565b7f4552433732313a2062616c616e636520717565727920666f7220746865207a6560008201527f726f206164647265737300000000000000000000000000000000000000000000602082015250565b6000614249602a8361332a565b9150614254826141ed565b604082019050919050565b600060208201905081810360008301526142788161423c565b9050919050565b7f4552433732314d657461646174613a2055524920717565727920666f72206e6f60008201527f6e6578697374656e7420746f6b656e0000000000000000000000000000000000602082015250565b60006142db602f8361332a565b91506142e68261427f565b604082019050919050565b6000602082019050818103600083015261430a816142ce565b9050919050565b600081905092915050565b60006143278261331f565b6143318185614311565b935061434181856020860161333b565b80840191505092915050565b7f2e6a736f6e000000000000000000000000000000000000000000000000000000600082015250565b6000614383600583614311565b915061438e8261434d565b600582019050919050565b60006143a5828561431c565b91506143b1828461431c565b91506143bc82614376565b91508190509392505050565b7f4552433732313a206f70657261746f7220717565727920666f72206e6f6e657860008201527f697374656e7420746f6b656e0000000000000000000000000000000000000000602082015250565b6000614424602c8361332a565b915061442f826143c8565b604082019050919050565b6000602082019050818103600083015261445381614417565b9050919050565b7f4552433732313a207472616e73666572206f6620746f6b656e2074686174206960008201527f73206e6f74206f776e0000000000000000000000000000000000000000000000602082015250565b60006144b660298361332a565b91506144c18261445a565b604082019050919050565b600060208201905081810360008301526144e5816144a9565b9050919050565b7f4552433732313a207472616e7366657220746f20746865207a65726f2061646460008201527f7265737300000000000000000000000000000000000000000000000000000000602082015250565b600061454860248361332a565b9150614553826144ec565b604082019050919050565b600060208201905081810360008301526145778161453b565b9050919050565b7f4552433732313a206d696e7420746f20746865207a65726f2061646472657373600082015250565b60006145b460208361332a565b91506145bf8261457e565b602082019050919050565b600060208201905081810360008301526145e3816145a7565b9050919050565b7f4552433732313a20746f6b656e20616c7265616479206d696e74656400000000600082015250565b6000614620601c8361332a565b915061462b826145ea565b602082019050919050565b6000602082019050818103600083015261464f81614613565b9050919050565b7f416363657373436f6e74726f6c3a206163636f756e7420000000000000000000600082015250565b600061468c601783614311565b915061469782614656565b601782019050919050565b7f206973206d697373696e6720726f6c6520000000000000000000000000000000600082015250565b60006146d8601183614311565b91506146e3826146a2565b601182019050919050565b60006146f98261467f565b9150614705828561431c565b9150614710826146cb565b915061471c828461431c565b91508190509392505050565b7f4552433732313a20617070726f766520746f2063616c6c657200000000000000600082015250565b600061475e60198361332a565b915061476982614728565b602082019050919050565b6000602082019050818103600083015261478d81614751565b9050919050565b7f4552433732313a207472616e7366657220746f206e6f6e20455243373231526560008201527f63656976657220696d706c656d656e7465720000000000000000000000000000602082015250565b60006147f060328361332a565b91506147fb82614794565b604082019050919050565b6000602082019050818103600083015261481f816147e3565b9050919050565b7f4e487b7100000000000000000000000000000000000000000000000000000000600052601260045260246000fd5b6000614860826133c9565b915061486b836133c9565b92508261487b5761487a614826565b5b828204905092915050565b6000614891826133c9565b915061489c836133c9565b9250826148ac576148ab614826565b5b828206905092915050565b60006148c2826133c9565b91506148cd836133c9565b9250817fffffffffffffffffffffffffffffffffffffffffffffffffffffffffffffffff048311821515161561490657614905613d51565b5b828202905092915050565b600061491c826133c9565b91506000820361492f5761492e613d51565b5b600182039050919050565b7f537472696e67733a20686578206c656e67746820696e73756666696369656e74600082015250565b600061497060208361332a565b915061497b8261493a565b602082019050919050565b6000602082019050818103600083015261499f81614963565b9050919050565b600081519050919050565b600082825260208201905092915050565b60006149cd826149a6565b6149d781856149b1565b93506149e781856020860161333b565b6149f08161319a565b840191505092915050565b6000608082019050614a10600083018761345e565b614a1d602083018661345e565b614a2a60408301856134f4565b8181036060830152614a3c81846149c2565b905095945050505050565b600081519050614a5681613101565b92915050565b600060208284031215614a7257614a716130cb565b5b6000614a8084828501614a47565b91505092915050565b7f4e487b7100000000000000000000000000000000000000000000000000000000600052603160045260246000fdfea2646970667358221220db930411724ebb29f9afc497889c174a38695b4887ff41235aea3c380fe56d0364736f6c634300080e0033",
  "immutableReferences": {},
  "source": "// SPDX-License-Identifier: MIT\npragma solidity ^0.8.0;\n\nimport \"@confluxfans/contracts/token/CRC721/extensions/CRC721Enumerable.sol\";\nimport \"@confluxfans/contracts/InternalContracts/InternalContractsHandler.sol\";\nimport \"@openzeppelin/contracts/access/AccessControlEnumerable.sol\";\n\ncontract MyCRC721Demo is AccessControlEnumerable, CRC721Enumerable, InternalContractsHandler {\n    using Strings for uint256;\n\n    string private _URI;\n\n    // Counter to auto generate token ID.\n    uint256 private _currentTokenId;\n    bytes32 public constant MINTER_ROLE = keccak256(\"MINTER_ROLE\");\n    bytes32 public constant PAUSER_ROLE = keccak256(\"PAUSER_ROLE\");\n\n    constructor(\n        string memory name_,\n        string memory symbol_,\n        string memory uri_\n    ) ERC721(name_, symbol_) {\n        _setupRole(DEFAULT_ADMIN_ROLE, _msgSender());\n\n        _setupRole(MINTER_ROLE, _msgSender());\n        _setupRole(PAUSER_ROLE, _msgSender());\n\n        setURI(uri_);\n\n        _currentTokenId=1;\n    }\n\n    //simple code for add a account as minter\n    function addMinter(address minter_) external {\n        grantRole(MINTER_ROLE, minter_);\n    }\n\n    function removeMinter(address minter_) external {\n        revokeRole(MINTER_ROLE, minter_);\n    }\n\n    /**\n     * @dev Update the URI for all tokens.\n     *\n     * Requirements:\n     *\n     * - the caller must have the `DEFAULT_ADMIN_ROLE`.\n     */\n    function setURI(string memory newuri) public virtual {\n        require(hasRole(DEFAULT_ADMIN_ROLE, _msgSender()), \"CRC721NatureAutoId: must have admin role to set URI\");\n        _URI = newuri;\n    }\n\n    /**\n     * @dev Base URI for computing {tokenURI}. If set, the resulting URI for each\n     * token will be the concatenation of the `baseURI` and the `tokenId`. Empty\n     * by default, can be overriden in child contracts.\n     */\n    function _baseURI() internal view virtual override returns (string memory) {\n        return _URI;\n    }\n\n    /**\n     * @dev See {IERC721Metadata-tokenURI}.\n     */\n    function tokenURI(uint256 tokenId) public view virtual override(ERC721)  returns (string memory) {\n        require(_exists(tokenId), \"ERC721Metadata: URI query for nonexistent token\");\n\n        string memory baseURI = _baseURI();\n        return bytes(baseURI).length > 0 ? string(abi.encodePacked(baseURI, tokenId.toString(), \".json\")) : \"\";\n    }\n\n    /**\n     * @dev Creates a new token for `to`. Its token ID will be automatically\n     * assigned (and available on the emitted {IERC721-Transfer} event), and the token\n     * URI autogenerated based on the base URI passed at construction.\n     *\n     * See {ERC721-_mint}.\n     *\n     * Requirements:\n     *\n     * - the caller must have the `MINTER_ROLE`.\n     */\n    function mint(address to) public virtual {\n        require(hasRole(MINTER_ROLE, _msgSender()), \"CRC721NatureAutoId: must have minter role to mint\");\n        uint256 tokenId = _currentTokenId;\n        _mint(to, tokenId);\n        _currentTokenId = tokenId+1;\n    }\n\n    /**\n     * @dev Batch version of mint function\n     */\n    function mintBatch(address to, uint256 amount) public virtual {\n        require(hasRole(MINTER_ROLE, _msgSender()), \"CRC721NatureAutoId: must have minter role to mint\");\n        uint256 tokenId = _currentTokenId;\n        for (uint256 index = 0; index < amount; ++index) _mint(to, tokenId + index);\n        _currentTokenId = tokenId + amount;\n    }\n\n    //chy:1idnft\n    function batchAddItemByAddress(address[] calldata _initialOwners) \n        public\n    {\n        require(hasRole(MINTER_ROLE, _msgSender()), \"CRC721NatureAutoId: must have minter role to mint\");\n        uint256 _length = _initialOwners.length;\n        uint256 tokenId = _currentTokenId;\n        for (uint256 i = 0; i < _length; ++i) {\n            _mint(_initialOwners[i], tokenId + i);\n        }\n        _currentTokenId = tokenId + _length;\n    }\n\n    /**\n     * @dev See {IERC165-supportsInterface}.\n     */\n    function supportsInterface(bytes4 interfaceId) public view virtual override(AccessControlEnumerable, ERC721Enumerable) returns (bool) {\n        return AccessControlEnumerable.supportsInterface(interfaceId) || ERC721Enumerable.supportsInterface(interfaceId);\n    }\n}\n",
  "sourcePath": "/Users/test/Desktop/NFTs/NFT2.0/contracts/MyCRC721Demo.sol",
  "compiler": {
    "name": "solc",
    "version": "0.8.14+commit.80d49f37.Emscripten.clang"
  },
  "schemaVersion": "3.3.4",
  "updatedAt": "2022-05-19T10:59:03.949Z",
  "devdoc": {
    "kind": "dev",
    "methods": {
      "approve(address,uint256)": {
        "details": "See {IERC721-approve}."
      },
      "balanceOf(address)": {
        "details": "See {IERC721-balanceOf}."
      },
      "getApproved(uint256)": {
        "details": "See {IERC721-getApproved}."
      },
      "getRoleAdmin(bytes32)": {
        "details": "Returns the admin role that controls `role`. See {grantRole} and {revokeRole}. To change a role's admin, use {_setRoleAdmin}."
      },
      "getRoleMember(bytes32,uint256)": {
        "details": "Returns one of the accounts that have `role`. `index` must be a value between 0 and {getRoleMemberCount}, non-inclusive. Role bearers are not sorted in any particular way, and their ordering may change at any point. WARNING: When using {getRoleMember} and {getRoleMemberCount}, make sure you perform all queries on the same block. See the following https://forum.openzeppelin.com/t/iterating-over-elements-on-enumerableset-in-openzeppelin-contracts/2296[forum post] for more information."
      },
      "getRoleMemberCount(bytes32)": {
        "details": "Returns the number of accounts that have `role`. Can be used together with {getRoleMember} to enumerate all bearers of a role."
      },
      "grantRole(bytes32,address)": {
        "details": "Grants `role` to `account`. If `account` had not been already granted `role`, emits a {RoleGranted} event. Requirements: - the caller must have ``role``'s admin role."
      },
      "hasRole(bytes32,address)": {
        "details": "Returns `true` if `account` has been granted `role`."
      },
      "isApprovedForAll(address,address)": {
        "details": "See {IERC721-isApprovedForAll}."
      },
      "mint(address)": {
        "details": "Creates a new token for `to`. Its token ID will be automatically assigned (and available on the emitted {IERC721-Transfer} event), and the token URI autogenerated based on the base URI passed at construction. See {ERC721-_mint}. Requirements: - the caller must have the `MINTER_ROLE`."
      },
      "mintBatch(address,uint256)": {
        "details": "Batch version of mint function"
      },
      "name()": {
        "details": "See {IERC721Metadata-name}."
      },
      "ownerOf(uint256)": {
        "details": "See {IERC721-ownerOf}."
      },
      "renounceRole(bytes32,address)": {
        "details": "Revokes `role` from the calling account. Roles are often managed via {grantRole} and {revokeRole}: this function's purpose is to provide a mechanism for accounts to lose their privileges if they are compromised (such as when a trusted device is misplaced). If the calling account had been revoked `role`, emits a {RoleRevoked} event. Requirements: - the caller must be `account`."
      },
      "revokeRole(bytes32,address)": {
        "details": "Revokes `role` from `account`. If `account` had been granted `role`, emits a {RoleRevoked} event. Requirements: - the caller must have ``role``'s admin role."
      },
      "safeTransferFrom(address,address,uint256)": {
        "details": "See {IERC721-safeTransferFrom}."
      },
      "safeTransferFrom(address,address,uint256,bytes)": {
        "details": "See {IERC721-safeTransferFrom}."
      },
      "setApprovalForAll(address,bool)": {
        "details": "See {IERC721-setApprovalForAll}."
      },
      "setURI(string)": {
        "details": "Update the URI for all tokens. Requirements: - the caller must have the `DEFAULT_ADMIN_ROLE`."
      },
      "supportsInterface(bytes4)": {
        "details": "See {IERC165-supportsInterface}."
      },
      "symbol()": {
        "details": "See {IERC721Metadata-symbol}."
      },
      "tokenByIndex(uint256)": {
        "details": "See {IERC721Enumerable-tokenByIndex}."
      },
      "tokenOfOwnerByIndex(address,uint256)": {
        "details": "See {IERC721Enumerable-tokenOfOwnerByIndex}."
      },
      "tokenURI(uint256)": {
        "details": "See {IERC721Metadata-tokenURI}."
      },
      "tokens(uint256,uint256)": {
        "details": "Returns token IDs in pagination view."
      },
      "tokensOf(address,uint256,uint256)": {
        "details": "Returns token IDs of specified `owner` in pagination view."
      },
      "totalSupply()": {
        "details": "See {IERC721Enumerable-totalSupply}."
      },
      "transferFrom(address,address,uint256)": {
        "details": "See {IERC721-transferFrom}."
      }
    },
    "version": 1
  },
  "userdoc": {
    "kind": "user",
    "methods": {},
    "version": 1
  }
}