{
  "contractName": "MyToken",
  "abi": [
    {
      "inputs": [],
      "stateMutability": "nonpayable",
      "type": "constructor"
    },
    {
      "anonymous": false,
      "inputs": [
        {
          "indexed": true,
          "internalType": "address",
          "name": "owner",
          "type": "address"
        },
        {
          "indexed": true,
          "internalType": "address",
          "name": "approved",
          "type": "address"
        },
        {
          "indexed": true,
          "internalType": "uint256",
          "name": "tokenId",
          "type": "uint256"
        }
      ],
      "name": "Approval",
      "type": "event"
    },
    {
      "anonymous": false,
      "inputs": [
        {
          "indexed": true,
          "internalType": "address",
          "name": "owner",
          "type": "address"
        },
        {
          "indexed": true,
          "internalType": "address",
          "name": "operator",
          "type": "address"
        },
        {
          "indexed": false,
          "internalType": "bool",
          "name": "approved",
          "type": "bool"
        }
      ],
      "name": "ApprovalForAll",
      "type": "event"
    },
    {
      "anonymous": false,
      "inputs": [
        {
          "indexed": true,
          "internalType": "address",
          "name": "previousOwner",
          "type": "address"
        },
        {
          "indexed": true,
          "internalType": "address",
          "name": "newOwner",
          "type": "address"
        }
      ],
      "name": "OwnershipTransferred",
      "type": "event"
    },
    {
      "anonymous": false,
      "inputs": [
        {
          "indexed": true,
          "internalType": "address",
          "name": "from",
          "type": "address"
        },
        {
          "indexed": true,
          "internalType": "address",
          "name": "to",
          "type": "address"
        },
        {
          "indexed": true,
          "internalType": "uint256",
          "name": "tokenId",
          "type": "uint256"
        }
      ],
      "name": "Transfer",
      "type": "event"
    },
    {
      "inputs": [
        {
          "internalType": "address",
          "name": "to",
          "type": "address"
        },
        {
          "internalType": "uint256",
          "name": "tokenId",
          "type": "uint256"
        }
      ],
      "name": "approve",
      "outputs": [],
      "stateMutability": "nonpayable",
      "type": "function"
    },
    {
      "inputs": [
        {
          "internalType": "address",
          "name": "owner",
          "type": "address"
        }
      ],
      "name": "balanceOf",
      "outputs": [
        {
          "internalType": "uint256",
          "name": "",
          "type": "uint256"
        }
      ],
      "stateMutability": "view",
      "type": "function"
    },
    {
      "inputs": [
        {
          "internalType": "uint256",
          "name": "tokenId",
          "type": "uint256"
        }
      ],
      "name": "getApproved",
      "outputs": [
        {
          "internalType": "address",
          "name": "",
          "type": "address"
        }
      ],
      "stateMutability": "view",
      "type": "function"
    },
    {
      "inputs": [
        {
          "internalType": "address",
          "name": "owner",
          "type": "address"
        },
        {
          "internalType": "address",
          "name": "operator",
          "type": "address"
        }
      ],
      "name": "isApprovedForAll",
      "outputs": [
        {
          "internalType": "bool",
          "name": "",
          "type": "bool"
        }
      ],
      "stateMutability": "view",
      "type": "function"
    },
    {
      "inputs": [],
      "name": "name",
      "outputs": [
        {
          "internalType": "string",
          "name": "",
          "type": "string"
        }
      ],
      "stateMutability": "view",
      "type": "function"
    },
    {
      "inputs": [],
      "name": "owner",
      "outputs": [
        {
          "internalType": "address",
          "name": "",
          "type": "address"
        }
      ],
      "stateMutability": "view",
      "type": "function"
    },
    {
      "inputs": [
        {
          "internalType": "uint256",
          "name": "tokenId",
          "type": "uint256"
        }
      ],
      "name": "ownerOf",
      "outputs": [
        {
          "internalType": "address",
          "name": "",
          "type": "address"
        }
      ],
      "stateMutability": "view",
      "type": "function"
    },
    {
      "inputs": [],
      "name": "renounceOwnership",
      "outputs": [],
      "stateMutability": "nonpayable",
      "type": "function"
    },
    {
      "inputs": [
        {
          "internalType": "address",
          "name": "from",
          "type": "address"
        },
        {
          "internalType": "address",
          "name": "to",
          "type": "address"
        },
        {
          "internalType": "uint256",
          "name": "tokenId",
          "type": "uint256"
        }
      ],
      "name": "safeTransferFrom",
      "outputs": [],
      "stateMutability": "nonpayable",
      "type": "function"
    },
    {
      "inputs": [
        {
          "internalType": "address",
          "name": "from",
          "type": "address"
        },
        {
          "internalType": "address",
          "name": "to",
          "type": "address"
        },
        {
          "internalType": "uint256",
          "name": "tokenId",
          "type": "uint256"
        },
        {
          "internalType": "bytes",
          "name": "_data",
          "type": "bytes"
        }
      ],
      "name": "safeTransferFrom",
      "outputs": [],
      "stateMutability": "nonpayable",
      "type": "function"
    },
    {
      "inputs": [
        {
          "internalType": "address",
          "name": "operator",
          "type": "address"
        },
        {
          "internalType": "bool",
          "name": "approved",
          "type": "bool"
        }
      ],
      "name": "setApprovalForAll",
      "outputs": [],
      "stateMutability": "nonpayable",
      "type": "function"
    },
    {
      "inputs": [
        {
          "internalType": "bytes4",
          "name": "interfaceId",
          "type": "bytes4"
        }
      ],
      "name": "supportsInterface",
      "outputs": [
        {
          "internalType": "bool",
          "name": "",
          "type": "bool"
        }
      ],
      "stateMutability": "view",
      "type": "function"
    },
    {
      "inputs": [],
      "name": "symbol",
      "outputs": [
        {
          "internalType": "string",
          "name": "",
          "type": "string"
        }
      ],
      "stateMutability": "view",
      "type": "function"
    },
    {
      "inputs": [
        {
          "internalType": "address",
          "name": "from",
          "type": "address"
        },
        {
          "internalType": "address",
          "name": "to",
          "type": "address"
        },
        {
          "internalType": "uint256",
          "name": "tokenId",
          "type": "uint256"
        }
      ],
      "name": "transferFrom",
      "outputs": [],
      "stateMutability": "nonpayable",
      "type": "function"
    },
    {
      "inputs": [
        {
          "internalType": "address",
          "name": "newOwner",
          "type": "address"
        }
      ],
      "name": "transferOwnership",
      "outputs": [],
      "stateMutability": "nonpayable",
      "type": "function"
    },
    {
      "inputs": [
        {
          "internalType": "string",
          "name": "newuri",
          "type": "string"
        }
      ],
      "name": "setURI",
      "outputs": [],
      "stateMutability": "nonpayable",
      "type": "function"
    },
    {
      "inputs": [
        {
          "internalType": "address",
          "name": "to",
          "type": "address"
        },
        {
          "internalType": "string",
          "name": "uri",
          "type": "string"
        }
      ],
      "name": "safeMint",
      "outputs": [],
      "stateMutability": "nonpayable",
      "type": "function"
    },
    {
      "inputs": [
        {
          "internalType": "uint256",
          "name": "tokenId",
          "type": "uint256"
        }
      ],
      "name": "tokenURI",
      "outputs": [
        {
          "internalType": "string",
          "name": "",
          "type": "string"
        }
      ],
      "stateMutability": "view",
      "type": "function"
    }
  ],
  "bytecode": "0x6080604052604051806060016040528060308152602001620032b3603091396009908051906020019062000035929190620003d0565b503480156200004357600080fd5b506040518060400160405280600781526020017f4d79546f6b656e000000000000000000000000000000000000000000000000008152506040518060400160405280600381526020017f4d544b00000000000000000000000000000000000000000000000000000000008152508160009080519060200190620000c8929190620003d0565b508060019080519060200190620000e1929190620003d0565b50505062000104620000f86200029760201b60201c565b6200029f60201b60201c565b620001146200036560201b60201c565b6200011f5762000291565b6000600167ffffffffffffffff81111562000163577f4e487b7100000000000000000000000000000000000000000000000000000000600052604160045260246000fd5b604051908082528060200260200182016040528015620001925781602001602082028036833780820191505090505b509050600081600081518110620001d2577f4e487b7100000000000000000000000000000000000000000000000000000000600052603260045260246000fd5b602002602001019073ffffffffffffffffffffffffffffffffffffffff16908173ffffffffffffffffffffffffffffffffffffffff168152505073088800000000000000000000000000000000000173ffffffffffffffffffffffffffffffffffffffff166310128d3e826040518263ffffffff1660e01b81526004016200025b919062000515565b600060405180830381600087803b1580156200027657600080fd5b505af11580156200028b573d6000803e3d6000fd5b50505050505b6200060b565b600033905090565b6000600760009054906101000a900473ffffffffffffffffffffffffffffffffffffffff16905081600760006101000a81548173ffffffffffffffffffffffffffffffffffffffff021916908373ffffffffffffffffffffffffffffffffffffffff1602179055508173ffffffffffffffffffffffffffffffffffffffff168173ffffffffffffffffffffffffffffffffffffffff167f8be0079c531659141344cd1fd0a4f28419497f9722a3daafe3b4186f6b6457e060405160405180910390a35050565b6000620003a7731820a4b7618bde71dce8cdc73aab6c95905fad2473ffffffffffffffffffffffffffffffffffffffff16620003ad60201b62000de11760201c565b15905090565b6000808273ffffffffffffffffffffffffffffffffffffffff163b119050919050565b828054620003de90620005a6565b90600052602060002090601f0160209004810192826200040257600085556200044e565b82601f106200041d57805160ff19168380011785556200044e565b828001600101855582156200044e579182015b828111156200044d57825182559160200191906001019062000430565b5b5090506200045d919062000461565b5090565b5b808211156200047c57600081600090555060010162000462565b5090565b60006200048e83836200049a565b60208301905092915050565b620004a58162000572565b82525050565b6000620004b88262000549565b620004c4818562000561565b9350620004d18362000539565b8060005b8381101562000508578151620004ec888262000480565b9750620004f98362000554565b925050600181019050620004d5565b5085935050505092915050565b60006020820190508181036000830152620005318184620004ab565b905092915050565b6000819050602082019050919050565b600081519050919050565b6000602082019050919050565b600082825260208201905092915050565b60006200057f8262000586565b9050919050565b600073ffffffffffffffffffffffffffffffffffffffff82169050919050565b60006002820490506001821680620005bf57607f821691505b60208210811415620005d657620005d5620005dc565b5b50919050565b7f4e487b7100000000000000000000000000000000000000000000000000000000600052602260045260246000fd5b612c98806200061b6000396000f3fe608060405234801561001057600080fd5b50600436106101165760003560e01c8063715018a6116100a2578063b88d4fde11610071578063b88d4fde146102cb578063c87b56dd146102e7578063d204c45e14610317578063e985e9c514610333578063f2fde38b1461036357610116565b8063715018a6146102695780638da5cb5b1461027357806395d89b4114610291578063a22cb465146102af57610116565b8063095ea7b3116100e9578063095ea7b3146101b557806323b872dd146101d157806342842e0e146101ed5780636352211e1461020957806370a082311461023957610116565b806301ffc9a71461011b57806302fe53051461014b57806306fdde0314610167578063081812fc14610185575b600080fd5b61013560048036038101906101309190611dd2565b61037f565b60405161014291906121e7565b60405180910390f35b61016560048036038101906101609190611e24565b610461565b005b61016f6104f7565b60405161017c9190612202565b60405180910390f35b61019f600480360381019061019a9190611e65565b610589565b6040516101ac9190612180565b60405180910390f35b6101cf60048036038101906101ca9190611d96565b61060e565b005b6101eb60048036038101906101e69190611c3c565b610726565b005b61020760048036038101906102029190611c3c565b610786565b005b610223600480360381019061021e9190611e65565b6107a6565b6040516102309190612180565b60405180910390f35b610253600480360381019061024e9190611bd7565b610858565b6040516102609190612444565b60405180910390f35b610271610910565b005b61027b610998565b6040516102889190612180565b60405180910390f35b6102996109c2565b6040516102a69190612202565b60405180910390f35b6102c960048036038101906102c49190611d06565b610a54565b005b6102e560048036038101906102e09190611c8b565b610a6a565b005b61030160048036038101906102fc9190611e65565b610acc565b60405161030e9190612202565b60405180910390f35b610331600480360381019061032c9190611d42565b610ba8565b005b61034d60048036038101906103489190611c00565b610c55565b60405161035a91906121e7565b60405180910390f35b61037d60048036038101906103789190611bd7565b610ce9565b005b60007f80ac58cd000000000000000000000000000000000000000000000000000000007bffffffffffffffffffffffffffffffffffffffffffffffffffffffff1916827bffffffffffffffffffffffffffffffffffffffffffffffffffffffff1916148061044a57507f5b5e139f000000000000000000000000000000000000000000000000000000007bffffffffffffffffffffffffffffffffffffffffffffffffffffffff1916827bffffffffffffffffffffffffffffffffffffffffffffffffffffffff1916145b8061045a575061045982610e04565b5b9050919050565b610469610e6e565b73ffffffffffffffffffffffffffffffffffffffff16610487610998565b73ffffffffffffffffffffffffffffffffffffffff16146104dd576040517f08c379a00000000000000000000000000000000000000000000000000000000081526004016104d4906123c4565b60405180910390fd5b80600990805190602001906104f39291906119fb565b5050565b6060600080546105069061265e565b80601f01602080910402602001604051908101604052809291908181526020018280546105329061265e565b801561057f5780601f106105545761010080835404028352916020019161057f565b820191906000526020600020905b81548152906001019060200180831161056257829003601f168201915b5050505050905090565b600061059482610e76565b6105d3576040517f08c379a00000000000000000000000000000000000000000000000000000000081526004016105ca906123a4565b60405180910390fd5b6004600083815260200190815260200160002060009054906101000a900473ffffffffffffffffffffffffffffffffffffffff169050919050565b6000610619826107a6565b90508073ffffffffffffffffffffffffffffffffffffffff168373ffffffffffffffffffffffffffffffffffffffff16141561068a576040517f08c379a000000000000000000000000000000000000000000000000000000000815260040161068190612404565b60405180910390fd5b8073ffffffffffffffffffffffffffffffffffffffff166106a9610e6e565b73ffffffffffffffffffffffffffffffffffffffff1614806106d857506106d7816106d2610e6e565b610c55565b5b610717576040517f08c379a000000000000000000000000000000000000000000000000000000000815260040161070e90612304565b60405180910390fd5b6107218383610ee2565b505050565b610737610731610e6e565b82610f9b565b610776576040517f08c379a000000000000000000000000000000000000000000000000000000000815260040161076d90612424565b60405180910390fd5b610781838383611079565b505050565b6107a183838360405180602001604052806000815250610a6a565b505050565b6000806002600084815260200190815260200160002060009054906101000a900473ffffffffffffffffffffffffffffffffffffffff169050600073ffffffffffffffffffffffffffffffffffffffff168173ffffffffffffffffffffffffffffffffffffffff16141561084f576040517f08c379a000000000000000000000000000000000000000000000000000000000815260040161084690612344565b60405180910390fd5b80915050919050565b60008073ffffffffffffffffffffffffffffffffffffffff168273ffffffffffffffffffffffffffffffffffffffff1614156108c9576040517f08c379a00000000000000000000000000000000000000000000000000000000081526004016108c090612324565b60405180910390fd5b600360008373ffffffffffffffffffffffffffffffffffffffff1673ffffffffffffffffffffffffffffffffffffffff168152602001908152602001600020549050919050565b610918610e6e565b73ffffffffffffffffffffffffffffffffffffffff16610936610998565b73ffffffffffffffffffffffffffffffffffffffff161461098c576040517f08c379a0000000000000000000000000000000000000000000000000000000008152600401610983906123c4565b60405180910390fd5b61099660006112e0565b565b6000600760009054906101000a900473ffffffffffffffffffffffffffffffffffffffff16905090565b6060600180546109d19061265e565b80601f01602080910402602001604051908101604052809291908181526020018280546109fd9061265e565b8015610a4a5780601f10610a1f57610100808354040283529160200191610a4a565b820191906000526020600020905b815481529060010190602001808311610a2d57829003601f168201915b5050505050905090565b610a66610a5f610e6e565b83836113a6565b5050565b610a7b610a75610e6e565b83610f9b565b610aba576040517f08c379a0000000000000000000000000000000000000000000000000000000008152600401610ab190612424565b60405180910390fd5b610ac684848484611513565b50505050565b6060610ad782610e76565b610b16576040517f08c379a0000000000000000000000000000000000000000000000000000000008152600401610b0d906123e4565b60405180910390fd5b60098054610b239061265e565b80601f0160208091040260200160405190810160405280929190818152602001828054610b4f9061265e565b8015610b9c5780601f10610b7157610100808354040283529160200191610b9c565b820191906000526020600020905b815481529060010190602001808311610b7f57829003601f168201915b50505050509050919050565b610bb0610e6e565b73ffffffffffffffffffffffffffffffffffffffff16610bce610998565b73ffffffffffffffffffffffffffffffffffffffff1614610c24576040517f08c379a0000000000000000000000000000000000000000000000000000000008152600401610c1b906123c4565b60405180910390fd5b6000610c30600861156f565b9050610c3c600861157d565b610c468382611593565b610c5081836115b1565b505050565b6000600560008473ffffffffffffffffffffffffffffffffffffffff1673ffffffffffffffffffffffffffffffffffffffff16815260200190815260200160002060008373ffffffffffffffffffffffffffffffffffffffff1673ffffffffffffffffffffffffffffffffffffffff16815260200190815260200160002060009054906101000a900460ff16905092915050565b610cf1610e6e565b73ffffffffffffffffffffffffffffffffffffffff16610d0f610998565b73ffffffffffffffffffffffffffffffffffffffff1614610d65576040517f08c379a0000000000000000000000000000000000000000000000000000000008152600401610d5c906123c4565b60405180910390fd5b600073ffffffffffffffffffffffffffffffffffffffff168173ffffffffffffffffffffffffffffffffffffffff161415610dd5576040517f08c379a0000000000000000000000000000000000000000000000000000000008152600401610dcc90612244565b60405180910390fd5b610dde816112e0565b50565b6000808273ffffffffffffffffffffffffffffffffffffffff163b119050919050565b60007f01ffc9a7000000000000000000000000000000000000000000000000000000007bffffffffffffffffffffffffffffffffffffffffffffffffffffffff1916827bffffffffffffffffffffffffffffffffffffffffffffffffffffffff1916149050919050565b600033905090565b60008073ffffffffffffffffffffffffffffffffffffffff166002600084815260200190815260200160002060009054906101000a900473ffffffffffffffffffffffffffffffffffffffff1673ffffffffffffffffffffffffffffffffffffffff1614159050919050565b816004600083815260200190815260200160002060006101000a81548173ffffffffffffffffffffffffffffffffffffffff021916908373ffffffffffffffffffffffffffffffffffffffff160217905550808273ffffffffffffffffffffffffffffffffffffffff16610f55836107a6565b73ffffffffffffffffffffffffffffffffffffffff167f8c5be1e5ebec7d5bd14f71427d1e84f3dd0314c0f7b2291e5b200ac8c7c3b92560405160405180910390a45050565b6000610fa682610e76565b610fe5576040517f08c379a0000000000000000000000000000000000000000000000000000000008152600401610fdc906122e4565b60405180910390fd5b6000610ff0836107a6565b90508073ffffffffffffffffffffffffffffffffffffffff168473ffffffffffffffffffffffffffffffffffffffff16148061103257506110318185610c55565b5b8061107057508373ffffffffffffffffffffffffffffffffffffffff1661105884610589565b73ffffffffffffffffffffffffffffffffffffffff16145b91505092915050565b8273ffffffffffffffffffffffffffffffffffffffff16611099826107a6565b73ffffffffffffffffffffffffffffffffffffffff16146110ef576040517f08c379a00000000000000000000000000000000000000000000000000000000081526004016110e690612264565b60405180910390fd5b600073ffffffffffffffffffffffffffffffffffffffff168273ffffffffffffffffffffffffffffffffffffffff16141561115f576040517f08c379a0000000000000000000000000000000000000000000000000000000008152600401611156906122a4565b60405180910390fd5b61116a838383611625565b611175600082610ee2565b6001600360008573ffffffffffffffffffffffffffffffffffffffff1673ffffffffffffffffffffffffffffffffffffffff16815260200190815260200160002060008282546111c59190612574565b925050819055506001600360008473ffffffffffffffffffffffffffffffffffffffff1673ffffffffffffffffffffffffffffffffffffffff168152602001908152602001600020600082825461121c919061251e565b92505081905550816002600083815260200190815260200160002060006101000a81548173ffffffffffffffffffffffffffffffffffffffff021916908373ffffffffffffffffffffffffffffffffffffffff160217905550808273ffffffffffffffffffffffffffffffffffffffff168473ffffffffffffffffffffffffffffffffffffffff167fddf252ad1be2c89b69c2b068fc378daa952ba7f163c4a11628f55a4df523b3ef60405160405180910390a46112db83838361162a565b505050565b6000600760009054906101000a900473ffffffffffffffffffffffffffffffffffffffff16905081600760006101000a81548173ffffffffffffffffffffffffffffffffffffffff021916908373ffffffffffffffffffffffffffffffffffffffff1602179055508173ffffffffffffffffffffffffffffffffffffffff168173ffffffffffffffffffffffffffffffffffffffff167f8be0079c531659141344cd1fd0a4f28419497f9722a3daafe3b4186f6b6457e060405160405180910390a35050565b8173ffffffffffffffffffffffffffffffffffffffff168373ffffffffffffffffffffffffffffffffffffffff161415611415576040517f08c379a000000000000000000000000000000000000000000000000000000000815260040161140c906122c4565b60405180910390fd5b80600560008573ffffffffffffffffffffffffffffffffffffffff1673ffffffffffffffffffffffffffffffffffffffff16815260200190815260200160002060008473ffffffffffffffffffffffffffffffffffffffff1673ffffffffffffffffffffffffffffffffffffffff16815260200190815260200160002060006101000a81548160ff0219169083151502179055508173ffffffffffffffffffffffffffffffffffffffff168373ffffffffffffffffffffffffffffffffffffffff167f17307eab39ab6107e8899845ad3d59bd9653f200f220920489ca2b5937696c318360405161150691906121e7565b60405180910390a3505050565b61151e848484611079565b61152a8484848461162f565b611569576040517f08c379a000000000000000000000000000000000000000000000000000000000815260040161156090612224565b60405180910390fd5b50505050565b600081600001549050919050565b6001816000016000828254019250508190555050565b6115ad8282604051806020016040528060008152506117c6565b5050565b6115ba82610e76565b6115f9576040517f08c379a00000000000000000000000000000000000000000000000000000000081526004016115f090612364565b60405180910390fd5b806006600084815260200190815260200160002090805190602001906116209291906119fb565b505050565b505050565b505050565b60006116508473ffffffffffffffffffffffffffffffffffffffff16610de1565b156117b9578373ffffffffffffffffffffffffffffffffffffffff1663150b7a02611679610e6e565b8786866040518563ffffffff1660e01b815260040161169b949392919061219b565b602060405180830381600087803b1580156116b557600080fd5b505af19250505080156116e657506040513d601f19601f820116820180604052508101906116e39190611dfb565b60015b611769573d8060008114611716576040519150601f19603f3d011682016040523d82523d6000602084013e61171b565b606091505b50600081511415611761576040517f08c379a000000000000000000000000000000000000000000000000000000000815260040161175890612224565b60405180910390fd5b805181602001fd5b63150b7a0260e01b7bffffffffffffffffffffffffffffffffffffffffffffffffffffffff1916817bffffffffffffffffffffffffffffffffffffffffffffffffffffffff1916149150506117be565b600190505b949350505050565b6117d08383611821565b6117dd600084848461162f565b61181c576040517f08c379a000000000000000000000000000000000000000000000000000000000815260040161181390612224565b60405180910390fd5b505050565b600073ffffffffffffffffffffffffffffffffffffffff168273ffffffffffffffffffffffffffffffffffffffff161415611891576040517f08c379a000000000000000000000000000000000000000000000000000000000815260040161188890612384565b60405180910390fd5b61189a81610e76565b156118da576040517f08c379a00000000000000000000000000000000000000000000000000000000081526004016118d190612284565b60405180910390fd5b6118e660008383611625565b6001600360008473ffffffffffffffffffffffffffffffffffffffff1673ffffffffffffffffffffffffffffffffffffffff1681526020019081526020016000206000828254611936919061251e565b92505081905550816002600083815260200190815260200160002060006101000a81548173ffffffffffffffffffffffffffffffffffffffff021916908373ffffffffffffffffffffffffffffffffffffffff160217905550808273ffffffffffffffffffffffffffffffffffffffff16600073ffffffffffffffffffffffffffffffffffffffff167fddf252ad1be2c89b69c2b068fc378daa952ba7f163c4a11628f55a4df523b3ef60405160405180910390a46119f76000838361162a565b5050565b828054611a079061265e565b90600052602060002090601f016020900481019282611a295760008555611a70565b82601f10611a4257805160ff1916838001178555611a70565b82800160010185558215611a70579182015b82811115611a6f578251825591602001919060010190611a54565b5b509050611a7d9190611a81565b5090565b5b80821115611a9a576000816000905550600101611a82565b5090565b6000611ab1611aac84612484565b61245f565b905082815260208101848484011115611ac957600080fd5b611ad484828561261c565b509392505050565b6000611aef611aea846124b5565b61245f565b905082815260208101848484011115611b0757600080fd5b611b1284828561261c565b509392505050565b600081359050611b2981612c06565b92915050565b600081359050611b3e81612c1d565b92915050565b600081359050611b5381612c34565b92915050565b600081519050611b6881612c34565b92915050565b600082601f830112611b7f57600080fd5b8135611b8f848260208601611a9e565b91505092915050565b600082601f830112611ba957600080fd5b8135611bb9848260208601611adc565b91505092915050565b600081359050611bd181612c4b565b92915050565b600060208284031215611be957600080fd5b6000611bf784828501611b1a565b91505092915050565b60008060408385031215611c1357600080fd5b6000611c2185828601611b1a565b9250506020611c3285828601611b1a565b9150509250929050565b600080600060608486031215611c5157600080fd5b6000611c5f86828701611b1a565b9350506020611c7086828701611b1a565b9250506040611c8186828701611bc2565b9150509250925092565b60008060008060808587031215611ca157600080fd5b6000611caf87828801611b1a565b9450506020611cc087828801611b1a565b9350506040611cd187828801611bc2565b925050606085013567ffffffffffffffff811115611cee57600080fd5b611cfa87828801611b6e565b91505092959194509250565b60008060408385031215611d1957600080fd5b6000611d2785828601611b1a565b9250506020611d3885828601611b2f565b9150509250929050565b60008060408385031215611d5557600080fd5b6000611d6385828601611b1a565b925050602083013567ffffffffffffffff811115611d8057600080fd5b611d8c85828601611b98565b9150509250929050565b60008060408385031215611da957600080fd5b6000611db785828601611b1a565b9250506020611dc885828601611bc2565b9150509250929050565b600060208284031215611de457600080fd5b6000611df284828501611b44565b91505092915050565b600060208284031215611e0d57600080fd5b6000611e1b84828501611b59565b91505092915050565b600060208284031215611e3657600080fd5b600082013567ffffffffffffffff811115611e5057600080fd5b611e5c84828501611b98565b91505092915050565b600060208284031215611e7757600080fd5b6000611e8584828501611bc2565b91505092915050565b611e97816125a8565b82525050565b611ea6816125ba565b82525050565b6000611eb7826124e6565b611ec181856124fc565b9350611ed181856020860161262b565b611eda8161274e565b840191505092915050565b6000611ef0826124f1565b611efa818561250d565b9350611f0a81856020860161262b565b611f138161274e565b840191505092915050565b6000611f2b60328361250d565b9150611f368261275f565b604082019050919050565b6000611f4e60268361250d565b9150611f59826127ae565b604082019050919050565b6000611f7160258361250d565b9150611f7c826127fd565b604082019050919050565b6000611f94601c8361250d565b9150611f9f8261284c565b602082019050919050565b6000611fb760248361250d565b9150611fc282612875565b604082019050919050565b6000611fda60198361250d565b9150611fe5826128c4565b602082019050919050565b6000611ffd602c8361250d565b9150612008826128ed565b604082019050919050565b600061202060388361250d565b915061202b8261293c565b604082019050919050565b6000612043602a8361250d565b915061204e8261298b565b604082019050919050565b600061206660298361250d565b9150612071826129da565b604082019050919050565b6000612089602e8361250d565b915061209482612a29565b604082019050919050565b60006120ac60208361250d565b91506120b782612a78565b602082019050919050565b60006120cf602c8361250d565b91506120da82612aa1565b604082019050919050565b60006120f260208361250d565b91506120fd82612af0565b602082019050919050565b6000612115602f8361250d565b915061212082612b19565b604082019050919050565b600061213860218361250d565b915061214382612b68565b604082019050919050565b600061215b60318361250d565b915061216682612bb7565b604082019050919050565b61217a81612612565b82525050565b60006020820190506121956000830184611e8e565b92915050565b60006080820190506121b06000830187611e8e565b6121bd6020830186611e8e565b6121ca6040830185612171565b81810360608301526121dc8184611eac565b905095945050505050565b60006020820190506121fc6000830184611e9d565b92915050565b6000602082019050818103600083015261221c8184611ee5565b905092915050565b6000602082019050818103600083015261223d81611f1e565b9050919050565b6000602082019050818103600083015261225d81611f41565b9050919050565b6000602082019050818103600083015261227d81611f64565b9050919050565b6000602082019050818103600083015261229d81611f87565b9050919050565b600060208201905081810360008301526122bd81611faa565b9050919050565b600060208201905081810360008301526122dd81611fcd565b9050919050565b600060208201905081810360008301526122fd81611ff0565b9050919050565b6000602082019050818103600083015261231d81612013565b9050919050565b6000602082019050818103600083015261233d81612036565b9050919050565b6000602082019050818103600083015261235d81612059565b9050919050565b6000602082019050818103600083015261237d8161207c565b9050919050565b6000602082019050818103600083015261239d8161209f565b9050919050565b600060208201905081810360008301526123bd816120c2565b9050919050565b600060208201905081810360008301526123dd816120e5565b9050919050565b600060208201905081810360008301526123fd81612108565b9050919050565b6000602082019050818103600083015261241d8161212b565b9050919050565b6000602082019050818103600083015261243d8161214e565b9050919050565b60006020820190506124596000830184612171565b92915050565b600061246961247a565b90506124758282612690565b919050565b6000604051905090565b600067ffffffffffffffff82111561249f5761249e61271f565b5b6124a88261274e565b9050602081019050919050565b600067ffffffffffffffff8211156124d0576124cf61271f565b5b6124d98261274e565b9050602081019050919050565b600081519050919050565b600081519050919050565b600082825260208201905092915050565b600082825260208201905092915050565b600061252982612612565b915061253483612612565b9250827fffffffffffffffffffffffffffffffffffffffffffffffffffffffffffffffff03821115612569576125686126c1565b5b828201905092915050565b600061257f82612612565b915061258a83612612565b92508282101561259d5761259c6126c1565b5b828203905092915050565b60006125b3826125f2565b9050919050565b60008115159050919050565b60007fffffffff0000000000000000000000000000000000000000000000000000000082169050919050565b600073ffffffffffffffffffffffffffffffffffffffff82169050919050565b6000819050919050565b82818337600083830152505050565b60005b8381101561264957808201518184015260208101905061262e565b83811115612658576000848401525b50505050565b6000600282049050600182168061267657607f821691505b6020821081141561268a576126896126f0565b5b50919050565b6126998261274e565b810181811067ffffffffffffffff821117156126b8576126b761271f565b5b80604052505050565b7f4e487b7100000000000000000000000000000000000000000000000000000000600052601160045260246000fd5b7f4e487b7100000000000000000000000000000000000000000000000000000000600052602260045260246000fd5b7f4e487b7100000000000000000000000000000000000000000000000000000000600052604160045260246000fd5b6000601f19601f8301169050919050565b7f4552433732313a207472616e7366657220746f206e6f6e20455243373231526560008201527f63656976657220696d706c656d656e7465720000000000000000000000000000602082015250565b7f4f776e61626c653a206e6577206f776e657220697320746865207a65726f206160008201527f6464726573730000000000000000000000000000000000000000000000000000602082015250565b7f4552433732313a207472616e736665722066726f6d20696e636f72726563742060008201527f6f776e6572000000000000000000000000000000000000000000000000000000602082015250565b7f4552433732313a20746f6b656e20616c7265616479206d696e74656400000000600082015250565b7f4552433732313a207472616e7366657220746f20746865207a65726f2061646460008201527f7265737300000000000000000000000000000000000000000000000000000000602082015250565b7f4552433732313a20617070726f766520746f2063616c6c657200000000000000600082015250565b7f4552433732313a206f70657261746f7220717565727920666f72206e6f6e657860008201527f697374656e7420746f6b656e0000000000000000000000000000000000000000602082015250565b7f4552433732313a20617070726f76652063616c6c6572206973206e6f74206f7760008201527f6e6572206e6f7220617070726f76656420666f7220616c6c0000000000000000602082015250565b7f4552433732313a2062616c616e636520717565727920666f7220746865207a6560008201527f726f206164647265737300000000000000000000000000000000000000000000602082015250565b7f4552433732313a206f776e657220717565727920666f72206e6f6e657869737460008201527f656e7420746f6b656e0000000000000000000000000000000000000000000000602082015250565b7f45524337323155524953746f726167653a2055524920736574206f66206e6f6e60008201527f6578697374656e7420746f6b656e000000000000000000000000000000000000602082015250565b7f4552433732313a206d696e7420746f20746865207a65726f2061646472657373600082015250565b7f4552433732313a20617070726f76656420717565727920666f72206e6f6e657860008201527f697374656e7420746f6b656e0000000000000000000000000000000000000000602082015250565b7f4f776e61626c653a2063616c6c6572206973206e6f7420746865206f776e6572600082015250565b7f4552433732314d657461646174613a2055524920717565727920666f72206e6f60008201527f6e6578697374656e7420746f6b656e0000000000000000000000000000000000602082015250565b7f4552433732313a20617070726f76616c20746f2063757272656e74206f776e6560008201527f7200000000000000000000000000000000000000000000000000000000000000602082015250565b7f4552433732313a207472616e736665722063616c6c6572206973206e6f74206f60008201527f776e6572206e6f7220617070726f766564000000000000000000000000000000602082015250565b612c0f816125a8565b8114612c1a57600080fd5b50565b612c26816125ba565b8114612c3157600080fd5b50565b612c3d816125c6565b8114612c4857600080fd5b50565b612c5481612612565b8114612c5f57600080fd5b5056fea2646970667358221220a86e00952bf54722e591ffb35955f03e8a05916340387338a369d05a3f08646a64736f6c6343000804003368747470733a2f2f6d657461646174612e636f6e666c75782e66756e2f6d657461646174612f74657374302e6a736f6e",
  "immutableReferences": {},
  "source": "// SPDX-License-Identifier: MIT\npragma solidity ^0.8.4;\n\nimport \"@openzeppelin/contracts/token/ERC721/ERC721.sol\";\nimport \"@openzeppelin/contracts/token/ERC721/extensions/ERC721URIStorage.sol\";\nimport \"@openzeppelin/contracts/access/Ownable.sol\";\nimport \"@openzeppelin/contracts/utils/Counters.sol\";\nimport \"@confluxfans/contracts/InternalContracts/InternalContractsHandler.sol\";\n\ncontract MyToken is\n  ERC721,\n  ERC721URIStorage,\n  Ownable,\n  InternalContractsHandler\n{\n  using Counters for Counters.Counter;\n\n  Counters.Counter private _tokenIdCounter;\n\n  string private baseUri = \"https://metadata.conflux.fun/metadata/test0.json\";\n\n  constructor() ERC721(\"MyToken\", \"MTK\") {}\n\n  function setURI(string memory newuri) public onlyOwner {\n    baseUri = newuri;\n  }\n\n  function safeMint(address to, string memory uri) public onlyOwner {\n    uint256 tokenId = _tokenIdCounter.current();\n    _tokenIdCounter.increment();\n    _safeMint(to, tokenId);\n    _setTokenURI(tokenId, uri);\n  }\n\n  // The following functions are overrides required by Solidity.\n\n  function _burn(uint256 tokenId) internal override(ERC721, ERC721URIStorage) {\n    super._burn(tokenId);\n  }\n\n  function tokenURI(uint256 tokenId)\n    public\n    view\n    override(ERC721, ERC721URIStorage)\n    returns (string memory)\n  {\n    require(\n      _exists(tokenId),\n      \"ERC721Metadata: URI query for nonexistent token\"\n    );\n    return baseUri;\n  }\n}\n",
  "sourcePath": "/Users/test/Desktop/dev/contracts/contracts/MyToken.sol",
  "compiler": {
    "name": "solc",
    "version": "0.8.4+commit.c7e474f2.Emscripten.clang"
  },
  "schemaVersion": "3.3.4",
  "updatedAt": "2022-04-30T01:49:20.876Z",
  "devdoc": {
    "kind": "dev",
    "methods": {
      "approve(address,uint256)": {
        "details": "See {IERC721-approve}."
      },
      "balanceOf(address)": {
        "details": "See {IERC721-balanceOf}."
      },
      "getApproved(uint256)": {
        "details": "See {IERC721-getApproved}."
      },
      "isApprovedForAll(address,address)": {
        "details": "See {IERC721-isApprovedForAll}."
      },
      "name()": {
        "details": "See {IERC721Metadata-name}."
      },
      "owner()": {
        "details": "Returns the address of the current owner."
      },
      "ownerOf(uint256)": {
        "details": "See {IERC721-ownerOf}."
      },
      "renounceOwnership()": {
        "details": "Leaves the contract without owner. It will not be possible to call `onlyOwner` functions anymore. Can only be called by the current owner. NOTE: Renouncing ownership will leave the contract without an owner, thereby removing any functionality that is only available to the owner."
      },
      "safeTransferFrom(address,address,uint256)": {
        "details": "See {IERC721-safeTransferFrom}."
      },
      "safeTransferFrom(address,address,uint256,bytes)": {
        "details": "See {IERC721-safeTransferFrom}."
      },
      "setApprovalForAll(address,bool)": {
        "details": "See {IERC721-setApprovalForAll}."
      },
      "supportsInterface(bytes4)": {
        "details": "See {IERC165-supportsInterface}."
      },
      "symbol()": {
        "details": "See {IERC721Metadata-symbol}."
      },
      "transferFrom(address,address,uint256)": {
        "details": "See {IERC721-transferFrom}."
      },
      "transferOwnership(address)": {
        "details": "Transfers ownership of the contract to a new account (`newOwner`). Can only be called by the current owner."
      }
    },
    "version": 1
  },
  "userdoc": {
    "kind": "user",
    "methods": {},
    "version": 1
  }
}